{
  "contractName": "ConcertTicket",
  "abi": [
    {
      "inputs": [],
      "stateMutability": "nonpayable",
      "type": "constructor"
    },
    {
      "anonymous": false,
      "inputs": [
        {
          "indexed": true,
          "internalType": "address",
          "name": "walletAddress",
          "type": "address"
        },
        {
          "indexed": false,
          "internalType": "uint256",
          "name": "amount",
          "type": "uint256"
        }
      ],
      "name": "BalanceWithdrawn",
      "type": "event"
    },
    {
      "anonymous": false,
      "inputs": [
        {
          "indexed": true,
          "internalType": "address",
          "name": "walletAddress",
          "type": "address"
        },
        {
          "indexed": true,
          "internalType": "uint256",
          "name": "typeofticket",
          "type": "uint256"
        },
        {
          "indexed": true,
          "internalType": "uint256",
          "name": "tickedid",
          "type": "uint256"
        }
      ],
      "name": "CheckIn",
      "type": "event"
    },
    {
      "anonymous": false,
      "inputs": [
        {
          "indexed": true,
          "internalType": "address",
          "name": "walletAddress",
          "type": "address"
        },
        {
          "indexed": true,
          "internalType": "uint256",
          "name": "ticketId",
          "type": "uint256"
        }
      ],
      "name": "CheckOut",
      "type": "event"
    },
    {
      "anonymous": false,
      "inputs": [
        {
          "indexed": true,
          "internalType": "address",
          "name": "walletAddress",
          "type": "address"
        },
        {
          "indexed": false,
          "internalType": "uint256",
          "name": "amount",
          "type": "uint256"
        }
      ],
      "name": "Deposit",
      "type": "event"
    },
    {
      "anonymous": false,
      "inputs": [
        {
          "indexed": true,
          "internalType": "address",
          "name": "walletAddress",
          "type": "address"
        },
        {
          "indexed": false,
          "internalType": "uint256",
          "name": "amount",
          "type": "uint256"
        }
      ],
      "name": "PaymentMade",
      "type": "event"
    },
    {
      "anonymous": false,
      "inputs": [
        {
          "indexed": true,
          "internalType": "uint256",
          "name": "id",
          "type": "uint256"
        },
        {
          "indexed": true,
          "internalType": "uint256",
          "name": "seatno",
          "type": "uint256"
        },
        {
          "indexed": false,
          "internalType": "string",
          "name": "seatcolor",
          "type": "string"
        },
        {
          "indexed": false,
          "internalType": "string",
          "name": "addittionalfeature",
          "type": "string"
        }
      ],
      "name": "TicketAdded",
      "type": "event"
    },
    {
      "anonymous": false,
      "inputs": [
        {
          "indexed": true,
          "internalType": "uint256",
          "name": "id",
          "type": "uint256"
        },
        {
          "indexed": false,
          "internalType": "string",
          "name": "name",
          "type": "string"
        },
        {
          "indexed": false,
          "internalType": "string",
          "name": "imgUrl",
          "type": "string"
        },
        {
          "indexed": false,
          "internalType": "uint256",
          "name": "buyPrice",
          "type": "uint256"
        },
        {
          "indexed": false,
          "internalType": "uint256",
          "name": "noOfTicketAvailable",
          "type": "uint256"
        },
        {
          "indexed": false,
          "internalType": "enum ConcertTicket.TypeOfTicket",
          "name": "typeOfTicket",
          "type": "uint8"
        }
      ],
      "name": "TicketTypeAdded",
      "type": "event"
    },
    {
      "anonymous": false,
      "inputs": [
        {
          "indexed": true,
          "internalType": "uint256",
          "name": "id",
          "type": "uint256"
        },
        {
          "indexed": false,
          "internalType": "string",
          "name": "name",
          "type": "string"
        },
        {
          "indexed": false,
          "internalType": "string",
          "name": "imgUrl",
          "type": "string"
        },
        {
          "indexed": false,
          "internalType": "uint256",
          "name": "buyPrice",
          "type": "uint256"
        },
        {
          "indexed": false,
          "internalType": "uint256",
          "name": "noOfTicketAvailable",
          "type": "uint256"
        },
        {
          "indexed": false,
          "internalType": "enum ConcertTicket.TypeOfTicket",
          "name": "typeOfTicket",
          "type": "uint8"
        }
      ],
      "name": "TicketTypeMetadataEdited",
      "type": "event"
    },
    {
      "anonymous": false,
      "inputs": [
        {
          "indexed": true,
          "internalType": "address",
          "name": "walletAddress",
          "type": "address"
        },
        {
          "indexed": false,
          "internalType": "string",
          "name": "name",
          "type": "string"
        },
        {
          "indexed": false,
          "internalType": "string",
          "name": "lastname",
          "type": "string"
        }
      ],
      "name": "UserAdded",
      "type": "event"
    },
    {
      "inputs": [
        {
          "internalType": "address",
          "name": "_newOwner",
          "type": "address"
        }
      ],
      "name": "setOwner",
      "outputs": [],
      "stateMutability": "nonpayable",
      "type": "function"
    },
    {
      "inputs": [
        {
          "internalType": "string",
          "name": "name",
          "type": "string"
        },
        {
          "internalType": "string",
          "name": "lastname",
          "type": "string"
        }
      ],
      "name": "addUser",
      "outputs": [],
      "stateMutability": "nonpayable",
      "type": "function"
    },
    {
      "inputs": [
        {
          "internalType": "string",
          "name": "name",
          "type": "string"
        },
        {
          "internalType": "string",
          "name": "url",
          "type": "string"
        },
        {
          "internalType": "uint256",
          "name": "buyPrice",
          "type": "uint256"
        },
        {
          "internalType": "uint256",
          "name": "noOfTicketAvailable",
          "type": "uint256"
        },
        {
          "internalType": "uint256",
          "name": "typeOfTicket",
          "type": "uint256"
        }
      ],
      "name": "addTicketType",
      "outputs": [],
      "stateMutability": "nonpayable",
      "type": "function"
    },
    {
      "inputs": [
        {
          "internalType": "uint256",
          "name": "id",
          "type": "uint256"
        },
        {
          "internalType": "string",
          "name": "name",
          "type": "string"
        },
        {
          "internalType": "string",
          "name": "imgUrl",
          "type": "string"
        },
        {
          "internalType": "uint256",
          "name": "buyPrice",
          "type": "uint256"
        },
        {
          "internalType": "uint256",
          "name": "noOfTicketAvailable",
          "type": "uint256"
        },
        {
          "internalType": "uint256",
          "name": "typeOfTicket",
          "type": "uint256"
        }
      ],
      "name": "editTicketMetadata",
      "outputs": [],
      "stateMutability": "nonpayable",
      "type": "function"
    },
    {
      "inputs": [
        {
          "internalType": "uint256",
          "name": "id",
          "type": "uint256"
        },
        {
          "internalType": "uint256",
          "name": "seatno",
          "type": "uint256"
        },
        {
          "internalType": "string",
          "name": "color",
          "type": "string"
        },
        {
          "internalType": "string",
          "name": "additionalfeature",
          "type": "string"
        },
        {
          "internalType": "enum ConcertTicket.Status",
          "name": "status",
          "type": "uint8"
        }
      ],
      "name": "addTicket",
      "outputs": [],
      "stateMutability": "nonpayable",
      "type": "function"
    },
    {
      "inputs": [
        {
          "internalType": "uint256",
          "name": "id",
          "type": "uint256"
        },
        {
          "internalType": "uint256",
          "name": "ticketid",
          "type": "uint256"
        }
      ],
      "name": "checkOut",
      "outputs": [],
      "stateMutability": "nonpayable",
      "type": "function"
    },
    {
      "inputs": [
        {
          "internalType": "uint256",
          "name": "typeofTicket",
          "type": "uint256"
        },
        {
          "internalType": "uint256",
          "name": "tickedid",
          "type": "uint256"
        }
      ],
      "name": "checkIn",
      "outputs": [],
      "stateMutability": "nonpayable",
      "type": "function"
    },
    {
      "inputs": [],
      "name": "deposit",
      "outputs": [],
      "stateMutability": "payable",
      "type": "function",
      "payable": true
    },
    {
      "inputs": [
        {
          "internalType": "uint256",
          "name": "buyPrice",
          "type": "uint256"
        }
      ],
      "name": "makePayment",
      "outputs": [],
      "stateMutability": "nonpayable",
      "type": "function"
    },
    {
      "inputs": [
        {
          "internalType": "uint256",
          "name": "amount",
          "type": "uint256"
        }
      ],
      "name": "withdrawBalance",
      "outputs": [],
      "stateMutability": "nonpayable",
      "type": "function"
    },
    {
      "inputs": [
        {
          "internalType": "uint256",
          "name": "amount",
          "type": "uint256"
        }
      ],
      "name": "withdrawOwnerBalance",
      "outputs": [],
      "stateMutability": "nonpayable",
      "type": "function"
    },
    {
      "inputs": [],
      "name": "getOwner",
      "outputs": [
        {
          "internalType": "address",
          "name": "",
          "type": "address"
        }
      ],
      "stateMutability": "view",
      "type": "function",
      "constant": true
    },
    {
      "inputs": [
        {
          "internalType": "address",
          "name": "walletAddress",
          "type": "address"
        }
      ],
      "name": "getUser",
      "outputs": [
        {
          "components": [
            {
              "internalType": "address",
              "name": "walletAddress",
              "type": "address"
            },
            {
              "internalType": "string",
              "name": "name",
              "type": "string"
            },
            {
              "internalType": "string",
              "name": "lastname",
              "type": "string"
            },
            {
              "internalType": "uint256",
              "name": "ticketId",
              "type": "uint256"
            },
            {
              "internalType": "uint256",
              "name": "balance",
              "type": "uint256"
            }
          ],
          "internalType": "struct ConcertTicket.User",
          "name": "",
          "type": "tuple"
        }
      ],
      "stateMutability": "view",
      "type": "function",
      "constant": true
    },
    {
      "inputs": [
        {
          "internalType": "uint256",
          "name": "id",
          "type": "uint256"
        }
      ],
      "name": "getTypeOfTicket",
      "outputs": [
        {
          "components": [
            {
              "internalType": "uint256",
              "name": "id",
              "type": "uint256"
            },
            {
              "internalType": "string",
              "name": "name",
              "type": "string"
            },
            {
              "internalType": "string",
              "name": "imgUrl",
              "type": "string"
            },
            {
              "internalType": "uint256",
              "name": "buyPrice",
              "type": "uint256"
            },
            {
              "internalType": "uint256",
              "name": "noOfTicketAvailable",
              "type": "uint256"
            },
            {
              "internalType": "enum ConcertTicket.TypeOfTicket",
              "name": "typeOfTicket",
              "type": "uint8"
            },
            {
              "components": [
                {
                  "internalType": "uint256",
                  "name": "id",
                  "type": "uint256"
                },
                {
                  "internalType": "uint256",
                  "name": "seatno",
                  "type": "uint256"
                },
                {
                  "internalType": "string",
                  "name": "seatcolor",
                  "type": "string"
                },
                {
                  "internalType": "string",
                  "name": "addittionalfeature",
                  "type": "string"
                },
                {
                  "internalType": "enum ConcertTicket.Status",
                  "name": "status",
                  "type": "uint8"
                }
              ],
              "internalType": "struct ConcertTicket.Ticket[]",
              "name": "tickets",
              "type": "tuple[]"
            }
          ],
          "internalType": "struct ConcertTicket.TicketType",
          "name": "",
          "type": "tuple"
        }
      ],
      "stateMutability": "view",
      "type": "function",
      "constant": true
    },
    {
      "inputs": [],
      "name": "getALLTypeOfTicket",
      "outputs": [
        {
          "components": [
            {
              "internalType": "uint256",
              "name": "id",
              "type": "uint256"
            },
            {
              "internalType": "string",
              "name": "name",
              "type": "string"
            },
            {
              "internalType": "string",
              "name": "imgUrl",
              "type": "string"
            },
            {
              "internalType": "uint256",
              "name": "buyPrice",
              "type": "uint256"
            },
            {
              "internalType": "uint256",
              "name": "noOfTicketAvailable",
              "type": "uint256"
            },
            {
              "internalType": "enum ConcertTicket.TypeOfTicket",
              "name": "typeOfTicket",
              "type": "uint8"
            },
            {
              "components": [
                {
                  "internalType": "uint256",
                  "name": "id",
                  "type": "uint256"
                },
                {
                  "internalType": "uint256",
                  "name": "seatno",
                  "type": "uint256"
                },
                {
                  "internalType": "string",
                  "name": "seatcolor",
                  "type": "string"
                },
                {
                  "internalType": "string",
                  "name": "addittionalfeature",
                  "type": "string"
                },
                {
                  "internalType": "enum ConcertTicket.Status",
                  "name": "status",
                  "type": "uint8"
                }
              ],
              "internalType": "struct ConcertTicket.Ticket[]",
              "name": "tickets",
              "type": "tuple[]"
            }
          ],
          "internalType": "struct ConcertTicket.TicketType[]",
          "name": "",
          "type": "tuple[]"
        }
      ],
      "stateMutability": "view",
      "type": "function",
      "constant": true
    },
    {
      "inputs": [
        {
          "internalType": "uint256",
          "name": "id",
          "type": "uint256"
        }
      ],
      "name": "getAllTicketsByTypeOfTicket",
      "outputs": [
        {
          "components": [
            {
              "internalType": "uint256",
              "name": "id",
              "type": "uint256"
            },
            {
              "internalType": "uint256",
              "name": "seatno",
              "type": "uint256"
            },
            {
              "internalType": "string",
              "name": "seatcolor",
              "type": "string"
            },
            {
              "internalType": "string",
              "name": "addittionalfeature",
              "type": "string"
            },
            {
              "internalType": "enum ConcertTicket.Status",
              "name": "status",
              "type": "uint8"
            }
          ],
          "internalType": "struct ConcertTicket.Ticket[]",
          "name": "",
          "type": "tuple[]"
        }
      ],
      "stateMutability": "view",
      "type": "function",
      "constant": true
    },
    {
      "inputs": [
        {
          "internalType": "uint256",
          "name": "id",
          "type": "uint256"
        },
        {
          "internalType": "uint256",
          "name": "ticketid",
          "type": "uint256"
        }
      ],
      "name": "getTicketByTypeOfTicket",
      "outputs": [
        {
          "components": [
            {
              "internalType": "uint256",
              "name": "id",
              "type": "uint256"
            },
            {
              "internalType": "uint256",
              "name": "seatno",
              "type": "uint256"
            },
            {
              "internalType": "string",
              "name": "seatcolor",
              "type": "string"
            },
            {
              "internalType": "string",
              "name": "addittionalfeature",
              "type": "string"
            },
            {
              "internalType": "enum ConcertTicket.Status",
              "name": "status",
              "type": "uint8"
            }
          ],
          "internalType": "struct ConcertTicket.Ticket",
          "name": "",
          "type": "tuple"
        }
      ],
      "stateMutability": "view",
      "type": "function",
      "constant": true
    },
    {
      "inputs": [],
      "name": "getCurrentCount",
      "outputs": [
        {
          "internalType": "uint256",
          "name": "",
          "type": "uint256"
        }
      ],
      "stateMutability": "view",
      "type": "function",
      "constant": true
    },
    {
      "inputs": [],
      "name": "getContractBalance",
      "outputs": [
        {
          "internalType": "uint256",
          "name": "",
          "type": "uint256"
        }
      ],
      "stateMutability": "view",
      "type": "function",
      "constant": true
    },
    {
      "inputs": [],
      "name": "getTotalPayments",
      "outputs": [
        {
          "internalType": "uint256",
          "name": "",
          "type": "uint256"
        }
      ],
      "stateMutability": "view",
      "type": "function",
      "constant": true
    }
  ],
  "bytecode": "0x608060405234801561001057600080fd5b50600160008190555033600260006101000a81548173ffffffffffffffffffffffffffffffffffffffff021916908373ffffffffffffffffffffffffffffffffffffffff1602179055506000600381905550614244806100716000396000f3fe60806040526004361061011f5760003560e01c8063708f29a6116100a0578063c6dd68f111610064578063c6dd68f1146103e3578063d0e30db01461040c578063da76d5cd14610416578063dd51babf1461043f578063f516f88e1461046a5761011f565b8063708f29a6146103125780637a7557291461033d5780638613c3f814610366578063893d20e81461038f578063c12f09e9146103ba5761011f565b806352699df8116100e757806352699df8146102055780635f60bc82146102305780636ea8e9421461026d5780636f77926b146102aa5780636f9fb98a146102e75761011f565b8063028b08ba14610124578063079eaf341461016157806313af40351461018a5780633c69c657146101b35780635114cb52146101dc575b600080fd5b34801561013057600080fd5b5061014b60048036038101906101469190612cc2565b610493565b604051610158919061303f565b60405180910390f35b34801561016d57600080fd5b50610188600480360381019061018391906130c6565b61080f565b005b34801561019657600080fd5b506101b160048036038101906101ac91906131a5565b610ace565b005b3480156101bf57600080fd5b506101da60048036038101906101d59190612cc2565b610ba2565b005b3480156101e857600080fd5b5061020360048036038101906101fe9190612cc2565b610d59565b005b34801561021157600080fd5b5061021a610eef565b604051610227919061333e565b60405180910390f35b34801561023c57600080fd5b5061025760048036038101906102529190612cc2565b611318565b60405161026491906133e6565b60405180910390f35b34801561027957600080fd5b50610294600480360381019061028f9190613408565b61158e565b6040516102a191906134c5565b60405180910390f35b3480156102b657600080fd5b506102d160048036038101906102cc91906131a5565b611752565b6040516102de9190613573565b60405180910390f35b3480156102f357600080fd5b506102fc611981565b60405161030991906135a4565b60405180910390f35b34801561031e57600080fd5b50610327611a19565b60405161033491906135a4565b60405180910390f35b34801561034957600080fd5b50610364600480360381019061035f91906135bf565b611ab3565b005b34801561037257600080fd5b5061038d60048036038101906103889190613408565b611e32565b005b34801561039b57600080fd5b506103a4611fab565b6040516103b1919061368a565b60405180910390f35b3480156103c657600080fd5b506103e160048036038101906103dc91906136a5565b611fd5565b005b3480156103ef57600080fd5b5061040a60048036038101906104059190613799565b6122bf565b005b61041461253c565b005b34801561042257600080fd5b5061043d60048036038101906104389190612cc2565b61262d565b005b34801561044b57600080fd5b50610454612867565b60405161046191906135a4565b60405180910390f35b34801561047657600080fd5b50610491600480360381019061048c9190613408565b612878565b005b61049b612a84565b600560008381526020019081526020016000206040518060e0016040529081600082015481526020016001820180546104d390613884565b80601f01602080910402602001604051908101604052809291908181526020018280546104ff90613884565b801561054c5780601f106105215761010080835404028352916020019161054c565b820191906000526020600020905b81548152906001019060200180831161052f57829003601f168201915b5050505050815260200160028201805461056590613884565b80601f016020809104026020016040519081016040528092919081815260200182805461059190613884565b80156105de5780601f106105b3576101008083540402835291602001916105de565b820191906000526020600020905b8154815290600101906020018083116105c157829003601f168201915b5050505050815260200160038201548152602001600482015481526020016005820160009054906101000a900460ff1660048111156106205761061f612d97565b5b600481111561063257610631612d97565b5b815260200160068201805480602002602001604051908101604052809291908181526020016000905b8282101561080057838290600052602060002090600502016040518060a001604052908160008201548152602001600182015481526020016002820180546106a290613884565b80601f01602080910402602001604051908101604052809291908181526020018280546106ce90613884565b801561071b5780601f106106f05761010080835404028352916020019161071b565b820191906000526020600020905b8154815290600101906020018083116106fe57829003601f168201915b5050505050815260200160038201805461073490613884565b80601f016020809104026020016040519081016040528092919081815260200182805461076090613884565b80156107ad5780601f10610782576101008083540402835291602001916107ad565b820191906000526020600020905b81548152906001019060200180831161079057829003601f168201915b505050505081526020016004820160009054906101000a900460ff1660018111156107db576107da612d97565b5b60018111156107ed576107ec612d97565b5b815250508152602001906001019061065b565b50505050815250509050919050565b6108183361296b565b15610858576040517f08c379a000000000000000000000000000000000000000000000000000000000815260040161084f90613913565b60405180910390fd5b6040518060a001604052803373ffffffffffffffffffffffffffffffffffffffff16815260200185858080601f016020809104026020016040519081016040528093929190818152602001838380828437600081840152601f19601f82011690508083019250505050505050815260200183838080601f016020809104026020016040519081016040528093929190818152602001838380828437600081840152601f19601f820116905080830192505050505050508152602001600081526020016000815250600460003373ffffffffffffffffffffffffffffffffffffffff1673ffffffffffffffffffffffffffffffffffffffff16815260200190815260200160002060008201518160000160006101000a81548173ffffffffffffffffffffffffffffffffffffffff021916908373ffffffffffffffffffffffffffffffffffffffff16021790555060208201518160010190805190602001906109c1929190612ad3565b5060408201518160020190805190602001906109de929190612ad3565b5060608201518160030155608082015181600401559050503373ffffffffffffffffffffffffffffffffffffffff167f8eab1db142a914aff8b515eedb9177bd7effaef6d714c41e30bdf15206778607600460003373ffffffffffffffffffffffffffffffffffffffff1673ffffffffffffffffffffffffffffffffffffffff168152602001908152602001600020600101600460003373ffffffffffffffffffffffffffffffffffffffff1673ffffffffffffffffffffffffffffffffffffffff168152602001908152602001600020600201604051610ac09291906139c8565b60405180910390a250505050565b600260009054906101000a900473ffffffffffffffffffffffffffffffffffffffff1673ffffffffffffffffffffffffffffffffffffffff163373ffffffffffffffffffffffffffffffffffffffff1614610b5e576040517f08c379a0000000000000000000000000000000000000000000000000000000008152600401610b5590613a71565b60405180910390fd5b80600260006101000a81548173ffffffffffffffffffffffffffffffffffffffff021916908373ffffffffffffffffffffffffffffffffffffffff16021790555050565b600260009054906101000a900473ffffffffffffffffffffffffffffffffffffffff1673ffffffffffffffffffffffffffffffffffffffff163373ffffffffffffffffffffffffffffffffffffffff1614610c32576040517f08c379a0000000000000000000000000000000000000000000000000000000008152600401610c2990613a71565b60405180910390fd5b806003541015610c77576040517f08c379a0000000000000000000000000000000000000000000000000000000008152600401610c6e90613b03565b60405180910390fd5b6000600260009054906101000a900473ffffffffffffffffffffffffffffffffffffffff1673ffffffffffffffffffffffffffffffffffffffff1682604051610cbf90613b54565b60006040518083038185875af1925050503d8060008114610cfc576040519150601f19603f3d011682016040523d82523d6000602084013e610d01565b606091505b5050905080610d45576040517f08c379a0000000000000000000000000000000000000000000000000000000008152600401610d3c90613bb5565b60405180910390fd5b816003600082825403925050819055505050565b610d623361296b565b610da1576040517f08c379a0000000000000000000000000000000000000000000000000000000008152600401610d9890613c21565b60405180910390fd5b6000600460003373ffffffffffffffffffffffffffffffffffffffff1673ffffffffffffffffffffffffffffffffffffffff16815260200190815260200160002060040154905081811015610e2b576040517f08c379a0000000000000000000000000000000000000000000000000000000008152600401610e2290613c8d565b60405180910390fd5b8160036000828254610e3d9190613cdc565b9250508190555081600460003373ffffffffffffffffffffffffffffffffffffffff1673ffffffffffffffffffffffffffffffffffffffff1681526020019081526020016000206004016000828254610e969190613d32565b925050819055503373ffffffffffffffffffffffffffffffffffffffff167f3a2d0e41c506b136330c6e5e0295ccbf0966daece99bfe7c89020cc01dbfb8d683604051610ee391906135a4565b60405180910390a25050565b60606000610efd6001612a06565b905060008167ffffffffffffffff811115610f1b57610f1a613d66565b5b604051908082528060200260200182016040528015610f5457816020015b610f41612a84565b815260200190600190039081610f395790505b5090506000600190505b82811161130f57600560008281526020019081526020016000206040518060e001604052908160008201548152602001600182018054610f9d90613884565b80601f0160208091040260200160405190810160405280929190818152602001828054610fc990613884565b80156110165780601f10610feb57610100808354040283529160200191611016565b820191906000526020600020905b815481529060010190602001808311610ff957829003601f168201915b5050505050815260200160028201805461102f90613884565b80601f016020809104026020016040519081016040528092919081815260200182805461105b90613884565b80156110a85780601f1061107d576101008083540402835291602001916110a8565b820191906000526020600020905b81548152906001019060200180831161108b57829003601f168201915b5050505050815260200160038201548152602001600482015481526020016005820160009054906101000a900460ff1660048111156110ea576110e9612d97565b5b60048111156110fc576110fb612d97565b5b815260200160068201805480602002602001604051908101604052809291908181526020016000905b828210156112ca57838290600052602060002090600502016040518060a0016040529081600082015481526020016001820154815260200160028201805461116c90613884565b80601f016020809104026020016040519081016040528092919081815260200182805461119890613884565b80156111e55780601f106111ba576101008083540402835291602001916111e5565b820191906000526020600020905b8154815290600101906020018083116111c857829003601f168201915b505050505081526020016003820180546111fe90613884565b80601f016020809104026020016040519081016040528092919081815260200182805461122a90613884565b80156112775780601f1061124c57610100808354040283529160200191611277565b820191906000526020600020905b81548152906001019060200180831161125a57829003601f168201915b505050505081526020016004820160009054906101000a900460ff1660018111156112a5576112a4612d97565b5b60018111156112b7576112b6612d97565b5b8152505081526020019060010190611125565b5050505081525050826001836112e09190613d32565b815181106112f1576112f0613d95565b5b6020026020010181905250808061130790613dc4565b915050610f5e565b50809250505090565b606060006005600084815260200190815260200160002060060180549050905060008167ffffffffffffffff81111561135457611353613d66565b5b60405190808252806020026020018201604052801561138d57816020015b61137a612b59565b8152602001906001900390816113725790505b5090506000600190505b828111611583576005600086815260200190815260200160002060060181815481106113c6576113c5613d95565b5b90600052602060002090600502016040518060a0016040529081600082015481526020016001820154815260200160028201805461140390613884565b80601f016020809104026020016040519081016040528092919081815260200182805461142f90613884565b801561147c5780601f106114515761010080835404028352916020019161147c565b820191906000526020600020905b81548152906001019060200180831161145f57829003601f168201915b5050505050815260200160038201805461149590613884565b80601f01602080910402602001604051908101604052809291908181526020018280546114c190613884565b801561150e5780601f106114e35761010080835404028352916020019161150e565b820191906000526020600020905b8154815290600101906020018083116114f157829003601f168201915b505050505081526020016004820160009054906101000a900460ff16600181111561153c5761153b612d97565b5b600181111561154e5761154d612d97565b5b8152505082828151811061156557611564613d95565b5b6020026020010181905250808061157b90613dc4565b915050611397565b508092505050919050565b611596612b59565b6005600084815260200190815260200160002060060182815481106115be576115bd613d95565b5b90600052602060002090600502016040518060a001604052908160008201548152602001600182015481526020016002820180546115fb90613884565b80601f016020809104026020016040519081016040528092919081815260200182805461162790613884565b80156116745780601f1061164957610100808354040283529160200191611674565b820191906000526020600020905b81548152906001019060200180831161165757829003601f168201915b5050505050815260200160038201805461168d90613884565b80601f01602080910402602001604051908101604052809291908181526020018280546116b990613884565b80156117065780601f106116db57610100808354040283529160200191611706565b820191906000526020600020905b8154815290600101906020018083116116e957829003601f168201915b505050505081526020016004820160009054906101000a900460ff16600181111561173457611733612d97565b5b600181111561174657611745612d97565b5b81525050905092915050565b61175a612b9a565b6117638261296b565b6117a2576040517f08c379a000000000000000000000000000000000000000000000000000000000815260040161179990613c21565b60405180910390fd5b600460008373ffffffffffffffffffffffffffffffffffffffff1673ffffffffffffffffffffffffffffffffffffffff1681526020019081526020016000206040518060a00160405290816000820160009054906101000a900473ffffffffffffffffffffffffffffffffffffffff1673ffffffffffffffffffffffffffffffffffffffff1673ffffffffffffffffffffffffffffffffffffffff16815260200160018201805461185290613884565b80601f016020809104026020016040519081016040528092919081815260200182805461187e90613884565b80156118cb5780601f106118a0576101008083540402835291602001916118cb565b820191906000526020600020905b8154815290600101906020018083116118ae57829003601f168201915b505050505081526020016002820180546118e490613884565b80601f016020809104026020016040519081016040528092919081815260200182805461191090613884565b801561195d5780601f106119325761010080835404028352916020019161195d565b820191906000526020600020905b81548152906001019060200180831161194057829003601f168201915b50505050508152602001600382015481526020016004820154815250509050919050565b6000600260009054906101000a900473ffffffffffffffffffffffffffffffffffffffff1673ffffffffffffffffffffffffffffffffffffffff163373ffffffffffffffffffffffffffffffffffffffff1614611a13576040517f08c379a0000000000000000000000000000000000000000000000000000000008152600401611a0a90613a71565b60405180910390fd5b47905090565b6000600260009054906101000a900473ffffffffffffffffffffffffffffffffffffffff1673ffffffffffffffffffffffffffffffffffffffff163373ffffffffffffffffffffffffffffffffffffffff1614611aab576040517f08c379a0000000000000000000000000000000000000000000000000000000008152600401611aa290613a71565b60405180910390fd5b600354905090565b600260009054906101000a900473ffffffffffffffffffffffffffffffffffffffff1673ffffffffffffffffffffffffffffffffffffffff163373ffffffffffffffffffffffffffffffffffffffff1614611b43576040517f08c379a0000000000000000000000000000000000000000000000000000000008152600401611b3a90613a71565b60405180910390fd5b611b4d6001612a14565b6000611b596001612a06565b90508060056000838152602001908152602001600020600001819055508787600560008481526020019081526020016000206001019190611b9b929190612bdf565b508585600560008481526020019081526020016000206002019190611bc1929190612bdf565b508360056000838152602001908152602001600020600301819055508260056000838152602001908152602001600020600401819055506000821415611c455760016005600083815260200190815260200160002060050160006101000a81548160ff02191690836004811115611c3b57611c3a612d97565b5b0217905550611d6f565b6001821415611c925760006005600083815260200190815260200160002060050160006101000a81548160ff02191690836004811115611c8857611c87612d97565b5b0217905550611d6e565b6002821415611cdf5760026005600083815260200190815260200160002060050160006101000a81548160ff02191690836004811115611cd557611cd4612d97565b5b0217905550611d6d565b6003821415611d2c5760036005600083815260200190815260200160002060050160006101000a81548160ff02191690836004811115611d2257611d21612d97565b5b0217905550611d6c565b60046005600083815260200190815260200160002060050160006101000a81548160ff02191690836004811115611d6657611d65612d97565b5b02179055505b5b5b5b807f70ac2509a95744d53f3703d09f6ef45f0298b42908aee92a0f86d6df2ab7a28c6005600084815260200190815260200160002060010160056000858152602001908152602001600020600201600560008681526020019081526020016000206003015460056000878152602001908152602001600020600401546005600088815260200190815260200160002060050160009054906101000a900460ff16604051611e20959493929190613e1c565b60405180910390a25050505050505050565b611e3b3361296b565b611e7a576040517f08c379a0000000000000000000000000000000000000000000000000000000008152600401611e7190613ec9565b60405180910390fd5b6000600560008481526020019081526020016000206004015411611ed3576040517f08c379a0000000000000000000000000000000000000000000000000000000008152600401611eca90613f35565b60405180910390fd5b6001600560008481526020019081526020016000206004016000828254611efa9190613d32565b925050819055506001600560008481526020019081526020016000206006018281548110611f2b57611f2a613d95565b5b906000526020600020906005020160040160006101000a81548160ff02191690836001811115611f5e57611f5d612d97565b5b0217905550813373ffffffffffffffffffffffffffffffffffffffff167ff65ce03794824579bcd95d8c6743ffc10c4a5e7405fb3876c1abf81453105c4260405160405180910390a35050565b6000600260009054906101000a900473ffffffffffffffffffffffffffffffffffffffff16905090565b600260009054906101000a900473ffffffffffffffffffffffffffffffffffffffff1673ffffffffffffffffffffffffffffffffffffffff163373ffffffffffffffffffffffffffffffffffffffff1614612065576040517f08c379a000000000000000000000000000000000000000000000000000000000815260040161205c90613a71565b60405180910390fd5b6000600560008a81526020019081526020016000206000015414156120bf576040517f08c379a00000000000000000000000000000000000000000000000000000000081526004016120b690613fc7565b60405180910390fd5b6000600560008a81526020019081526020016000209050600088889050146120f65787878260010191906120f4929190612bdf565b505b60008686905014612116578585826002019190612114929190612bdf565b505b6000841115612129578381600301819055505b600083111561213c578281600401819055505b60008214156121775760018160050160006101000a81548160ff0219169083600481111561216d5761216c612d97565b5b0217905550612259565b60018214156121b25760008160050160006101000a81548160ff021916908360048111156121a8576121a7612d97565b5b0217905550612258565b60028214156121ed5760028160050160006101000a81548160ff021916908360048111156121e3576121e2612d97565b5b0217905550612257565b60028214156122285760038160050160006101000a81548160ff0219169083600481111561221e5761221d612d97565b5b0217905550612256565b60048160050160006101000a81548160ff021916908360048111156122505761224f612d97565b5b02179055505b5b5b5b887f417f3443a9ef8c447a4bfd8732fa9625e76d8a0d8b93ed4297faeb0bc258d9a382600101836002018460030154878660050160009054906101000a900460ff166040516122ac959493929190613e1c565b60405180910390a2505050505050505050565b600260009054906101000a900473ffffffffffffffffffffffffffffffffffffffff1673ffffffffffffffffffffffffffffffffffffffff163373ffffffffffffffffffffffffffffffffffffffff161461234f576040517f08c379a000000000000000000000000000000000000000000000000000000000815260040161234690613a71565b60405180910390fd5b60006005600089815260200190815260200160002060060180549050905060006040518060a0016040528083815260200189815260200188888080601f016020809104026020016040519081016040528093929190818152602001838380828437600081840152601f19601f82011690508083019250505050505050815260200186868080601f016020809104026020016040519081016040528093929190818152602001838380828437600081840152601f19601f82011690508083019250505050505050815260200184600181111561242d5761242c612d97565b5b8152509050600560008a8152602001908152602001600020600601819080600181540180825580915050600190039060005260206000209060050201600090919091909150600082015181600001556020820151816001015560408201518160020190805190602001906124a2929190612ad3565b5060608201518160030190805190602001906124bf929190612ad3565b5060808201518160040160006101000a81548160ff021916908360018111156124eb576124ea612d97565b5b0217905550505087827f02d0cc50df5d7515555cb867e4666a3c3253ea4e7064671c23cec209d6b4e73d898989896040516125299493929190614023565b60405180910390a3505050505050505050565b6125453361296b565b612584576040517f08c379a000000000000000000000000000000000000000000000000000000000815260040161257b906140aa565b60405180910390fd5b34600460003373ffffffffffffffffffffffffffffffffffffffff1673ffffffffffffffffffffffffffffffffffffffff16815260200190815260200160002060040160008282546125d69190613cdc565b925050819055503373ffffffffffffffffffffffffffffffffffffffff167fe1fffcc4923d04b559f4d29a8bfc6cda04eb5b0d3c460751c2402c5c5cc9109c3460405161262391906135a4565b60405180910390a2565b612635612a2a565b61263e3361296b565b61267d576040517f08c379a0000000000000000000000000000000000000000000000000000000008152600401612674906140aa565b60405180910390fd5b6000600460003373ffffffffffffffffffffffffffffffffffffffff1673ffffffffffffffffffffffffffffffffffffffff16815260200190815260200160002060040154905081811015612707576040517f08c379a00000000000000000000000000000000000000000000000000000000081526004016126fe90614116565b60405180910390fd5b81600460003373ffffffffffffffffffffffffffffffffffffffff1673ffffffffffffffffffffffffffffffffffffffff16815260200190815260200160002060040160008282546127599190613d32565b9250508190555060003373ffffffffffffffffffffffffffffffffffffffff168360405161278690613b54565b60006040518083038185875af1925050503d80600081146127c3576040519150601f19603f3d011682016040523d82523d6000602084013e6127c8565b606091505b505090508061280c576040517f08c379a000000000000000000000000000000000000000000000000000000000815260040161280390613bb5565b60405180910390fd5b3373ffffffffffffffffffffffffffffffffffffffff167fddc398b321237a8d40ac914388309c2f52a08c134e4dc4ce61e32f57cb7d80f18460405161285291906135a4565b60405180910390a25050612864612a7a565b50565b60006128736001612a06565b905090565b6128813361296b565b6128c0576040517f08c379a00000000000000000000000000000000000000000000000000000000081526004016128b790614182565b60405180910390fd5b60006005600084815260200190815260200160002060060182815481106128ea576128e9613d95565b5b906000526020600020906005020160040160006101000a81548160ff0219169083600181111561291d5761291c612d97565b5b021790555080823373ffffffffffffffffffffffffffffffffffffffff167fb9cfea4717f167774a6e8643c33472935d3ef918453525eefca6936078b7cfdd60405160405180910390a45050565b60008073ffffffffffffffffffffffffffffffffffffffff16600460008473ffffffffffffffffffffffffffffffffffffffff1673ffffffffffffffffffffffffffffffffffffffff16815260200190815260200160002060000160009054906101000a900473ffffffffffffffffffffffffffffffffffffffff1673ffffffffffffffffffffffffffffffffffffffff1614159050919050565b600081600001549050919050565b6001816000016000828254019250508190555050565b60026000541415612a70576040517f08c379a0000000000000000000000000000000000000000000000000000000008152600401612a67906141ee565b60405180910390fd5b6002600081905550565b6001600081905550565b6040518060e00160405280600081526020016060815260200160608152602001600081526020016000815260200160006004811115612ac657612ac5612d97565b5b8152602001606081525090565b828054612adf90613884565b90600052602060002090601f016020900481019282612b015760008555612b48565b82601f10612b1a57805160ff1916838001178555612b48565b82800160010185558215612b48579182015b82811115612b47578251825591602001919060010190612b2c565b5b509050612b559190612c65565b5090565b6040518060a001604052806000815260200160008152602001606081526020016060815260200160006001811115612b9457612b93612d97565b5b81525090565b6040518060a00160405280600073ffffffffffffffffffffffffffffffffffffffff168152602001606081526020016060815260200160008152602001600081525090565b828054612beb90613884565b90600052602060002090601f016020900481019282612c0d5760008555612c54565b82601f10612c2657803560ff1916838001178555612c54565b82800160010185558215612c54579182015b82811115612c53578235825591602001919060010190612c38565b5b509050612c619190612c65565b5090565b5b80821115612c7e576000816000905550600101612c66565b5090565b600080fd5b600080fd5b6000819050919050565b612c9f81612c8c565b8114612caa57600080fd5b50565b600081359050612cbc81612c96565b92915050565b600060208284031215612cd857612cd7612c82565b5b6000612ce684828501612cad565b91505092915050565b612cf881612c8c565b82525050565b600081519050919050565b600082825260208201905092915050565b60005b83811015612d38578082015181840152602081019050612d1d565b83811115612d47576000848401525b50505050565b6000601f19601f8301169050919050565b6000612d6982612cfe565b612d738185612d09565b9350612d83818560208601612d1a565b612d8c81612d4d565b840191505092915050565b7f4e487b7100000000000000000000000000000000000000000000000000000000600052602160045260246000fd5b60058110612dd757612dd6612d97565b5b50565b6000819050612de882612dc6565b919050565b6000612df882612dda565b9050919050565b612e0881612ded565b82525050565b600081519050919050565b600082825260208201905092915050565b6000819050602082019050919050565b60028110612e4b57612e4a612d97565b5b50565b6000819050612e5c82612e3a565b919050565b6000612e6c82612e4e565b9050919050565b612e7c81612e61565b82525050565b600060a083016000830151612e9a6000860182612cef565b506020830151612ead6020860182612cef565b5060408301518482036040860152612ec58282612d5e565b91505060608301518482036060860152612edf8282612d5e565b9150506080830151612ef46080860182612e73565b508091505092915050565b6000612f0b8383612e82565b905092915050565b6000602082019050919050565b6000612f2b82612e0e565b612f358185612e19565b935083602082028501612f4785612e2a565b8060005b85811015612f835784840389528151612f648582612eff565b9450612f6f83612f13565b925060208a01995050600181019050612f4b565b50829750879550505050505092915050565b600060e083016000830151612fad6000860182612cef565b5060208301518482036020860152612fc58282612d5e565b91505060408301518482036040860152612fdf8282612d5e565b9150506060830151612ff46060860182612cef565b5060808301516130076080860182612cef565b5060a083015161301a60a0860182612dff565b5060c083015184820360c08601526130328282612f20565b9150508091505092915050565b600060208201905081810360008301526130598184612f95565b905092915050565b600080fd5b600080fd5b600080fd5b60008083601f84011261308657613085613061565b5b8235905067ffffffffffffffff8111156130a3576130a2613066565b5b6020830191508360018202830111156130bf576130be61306b565b5b9250929050565b600080600080604085870312156130e0576130df612c82565b5b600085013567ffffffffffffffff8111156130fe576130fd612c87565b5b61310a87828801613070565b9450945050602085013567ffffffffffffffff81111561312d5761312c612c87565b5b61313987828801613070565b925092505092959194509250565b600073ffffffffffffffffffffffffffffffffffffffff82169050919050565b600061317282613147565b9050919050565b61318281613167565b811461318d57600080fd5b50565b60008135905061319f81613179565b92915050565b6000602082840312156131bb576131ba612c82565b5b60006131c984828501613190565b91505092915050565b600081519050919050565b600082825260208201905092915050565b6000819050602082019050919050565b600060e0830160008301516132166000860182612cef565b506020830151848203602086015261322e8282612d5e565b915050604083015184820360408601526132488282612d5e565b915050606083015161325d6060860182612cef565b5060808301516132706080860182612cef565b5060a083015161328360a0860182612dff565b5060c083015184820360c086015261329b8282612f20565b9150508091505092915050565b60006132b483836131fe565b905092915050565b6000602082019050919050565b60006132d4826131d2565b6132de81856131dd565b9350836020820285016132f0856131ee565b8060005b8581101561332c578484038952815161330d85826132a8565b9450613318836132bc565b925060208a019950506001810190506132f4565b50829750879550505050505092915050565b6000602082019050818103600083015261335881846132c9565b905092915050565b600082825260208201905092915050565b600061337c82612e0e565b6133868185613360565b93508360208202850161339885612e2a565b8060005b858110156133d457848403895281516133b58582612eff565b94506133c083612f13565b925060208a0199505060018101905061339c565b50829750879550505050505092915050565b600060208201905081810360008301526134008184613371565b905092915050565b6000806040838503121561341f5761341e612c82565b5b600061342d85828601612cad565b925050602061343e85828601612cad565b9150509250929050565b600060a0830160008301516134606000860182612cef565b5060208301516134736020860182612cef565b506040830151848203604086015261348b8282612d5e565b915050606083015184820360608601526134a58282612d5e565b91505060808301516134ba6080860182612e73565b508091505092915050565b600060208201905081810360008301526134df8184613448565b905092915050565b6134f081613167565b82525050565b600060a08301600083015161350e60008601826134e7565b50602083015184820360208601526135268282612d5e565b915050604083015184820360408601526135408282612d5e565b91505060608301516135556060860182612cef565b5060808301516135686080860182612cef565b508091505092915050565b6000602082019050818103600083015261358d81846134f6565b905092915050565b61359e81612c8c565b82525050565b60006020820190506135b96000830184613595565b92915050565b600080600080600080600060a0888a0312156135de576135dd612c82565b5b600088013567ffffffffffffffff8111156135fc576135fb612c87565b5b6136088a828b01613070565b9750975050602088013567ffffffffffffffff81111561362b5761362a612c87565b5b6136378a828b01613070565b9550955050604061364a8a828b01612cad565b935050606061365b8a828b01612cad565b925050608061366c8a828b01612cad565b91505092959891949750929550565b61368481613167565b82525050565b600060208201905061369f600083018461367b565b92915050565b60008060008060008060008060c0898b0312156136c5576136c4612c82565b5b60006136d38b828c01612cad565b985050602089013567ffffffffffffffff8111156136f4576136f3612c87565b5b6137008b828c01613070565b9750975050604089013567ffffffffffffffff81111561372357613722612c87565b5b61372f8b828c01613070565b955095505060606137428b828c01612cad565b93505060806137538b828c01612cad565b92505060a06137648b828c01612cad565b9150509295985092959890939650565b6002811061378157600080fd5b50565b60008135905061379381613774565b92915050565b600080600080600080600060a0888a0312156137b8576137b7612c82565b5b60006137c68a828b01612cad565b97505060206137d78a828b01612cad565b965050604088013567ffffffffffffffff8111156137f8576137f7612c87565b5b6138048a828b01613070565b9550955050606088013567ffffffffffffffff81111561382757613826612c87565b5b6138338a828b01613070565b935093505060806138468a828b01613784565b91505092959891949750929550565b7f4e487b7100000000000000000000000000000000000000000000000000000000600052602260045260246000fd5b6000600282049050600182168061389c57607f821691505b602082108114156138b0576138af613855565b5b50919050565b600082825260208201905092915050565b7f5573657220616c72656164792065786973747300000000000000000000000000600082015250565b60006138fd6013836138b6565b9150613908826138c7565b602082019050919050565b6000602082019050818103600083015261392c816138f0565b9050919050565b60008190508160005260206000209050919050565b6000815461395581613884565b61395f81866138b6565b9450600182166000811461397a576001811461398c576139bf565b60ff19831686526020860193506139bf565b61399585613933565b60005b838110156139b757815481890152600182019150602081019050613998565b808801955050505b50505092915050565b600060408201905081810360008301526139e28185613948565b905081810360208301526139f68184613948565b90509392505050565b7f4f6e6c7920746865206f776e65722063616e2063616c6c20746869732066756e60008201527f6374696f6e000000000000000000000000000000000000000000000000000000602082015250565b6000613a5b6025836138b6565b9150613a66826139ff565b604082019050919050565b60006020820190508181036000830152613a8a81613a4e565b9050919050565b7f496e73756666696369656e7420636f6e74726163742062616c616e636520746f60008201527f2077697468647261770000000000000000000000000000000000000000000000602082015250565b6000613aed6029836138b6565b9150613af882613a91565b604082019050919050565b60006020820190508181036000830152613b1c81613ae0565b9050919050565b600081905092915050565b50565b6000613b3e600083613b23565b9150613b4982613b2e565b600082019050919050565b6000613b5f82613b31565b9150819050919050565b7f5472616e73666572206661696c65640000000000000000000000000000000000600082015250565b6000613b9f600f836138b6565b9150613baa82613b69565b602082019050919050565b60006020820190508181036000830152613bce81613b92565b9050919050565b7f5573657220646f6573206e6f7420657869737473000000000000000000000000600082015250565b6000613c0b6014836138b6565b9150613c1682613bd5565b602082019050919050565b60006020820190508181036000830152613c3a81613bfe565b9050919050565b7f557365722068617320756e73756666696369656e742062616c616e6365000000600082015250565b6000613c77601d836138b6565b9150613c8282613c41565b602082019050919050565b60006020820190508181036000830152613ca681613c6a565b9050919050565b7f4e487b7100000000000000000000000000000000000000000000000000000000600052601160045260246000fd5b6000613ce782612c8c565b9150613cf283612c8c565b9250827fffffffffffffffffffffffffffffffffffffffffffffffffffffffffffffffff03821115613d2757613d26613cad565b5b828201905092915050565b6000613d3d82612c8c565b9150613d4883612c8c565b925082821015613d5b57613d5a613cad565b5b828203905092915050565b7f4e487b7100000000000000000000000000000000000000000000000000000000600052604160045260246000fd5b7f4e487b7100000000000000000000000000000000000000000000000000000000600052603260045260246000fd5b6000613dcf82612c8c565b91507fffffffffffffffffffffffffffffffffffffffffffffffffffffffffffffffff821415613e0257613e01613cad565b5b600182019050919050565b613e1681612ded565b82525050565b600060a0820190508181036000830152613e368188613948565b90508181036020830152613e4a8187613948565b9050613e596040830186613595565b613e666060830185613595565b613e736080830184613e0d565b9695505050505050565b7f7573657220646f6573206e6f7420657869737473000000000000000000000000600082015250565b6000613eb36014836138b6565b9150613ebe82613e7d565b602082019050919050565b60006020820190508181036000830152613ee281613ea6565b9050919050565b7f436172206973206e6f7420417661696c61626c6520746f207573650000000000600082015250565b6000613f1f601b836138b6565b9150613f2a82613ee9565b602082019050919050565b60006020820190508181036000830152613f4e81613f12565b9050919050565b7f5469636b65742077697468206769766520494420646f6573206e6f742065786960008201527f7374000000000000000000000000000000000000000000000000000000000000602082015250565b6000613fb16022836138b6565b9150613fbc82613f55565b604082019050919050565b60006020820190508181036000830152613fe081613fa4565b9050919050565b82818337600083830152505050565b600061400283856138b6565b935061400f838584613fe7565b61401883612d4d565b840190509392505050565b6000604082019050818103600083015261403e818688613ff6565b90508181036020830152614053818486613ff6565b905095945050505050565b7f5573657220646f6573206e6f7420657869737400000000000000000000000000600082015250565b60006140946013836138b6565b915061409f8261405e565b602082019050919050565b600060208201905081810360008301526140c381614087565b9050919050565b7f496e73756666696369656e742062616c616e636520746f207769746864726177600082015250565b60006141006020836138b6565b915061410b826140ca565b602082019050919050565b6000602082019050818103600083015261412f816140f3565b9050919050565b7f5573657220646f6f6520736e6f74206578697374730000000000000000000000600082015250565b600061416c6015836138b6565b915061417782614136565b602082019050919050565b6000602082019050818103600083015261419b8161415f565b9050919050565b7f5265656e7472616e637947756172643a207265656e7472616e742063616c6c00600082015250565b60006141d8601f836138b6565b91506141e3826141a2565b602082019050919050565b60006020820190508181036000830152614207816141cb565b905091905056fea264697066735822122013be437b34b4bedae0d59ed7b0de09677a86eafba9f4a7d523a19b5fc52ff5ce64736f6c634300080c0033",
  "immutableReferences": {},
  "source": "// SPDX-License-Identifier: MIT\npragma solidity 0.8.12;\nimport \"../../node_modules/@openzeppelin/contracts/utils/Counters.sol\"; \nimport \"../../node_modules/@openzeppelin/contracts/security/ReentrancyGuard.sol\";\n\n\ncontract ConcertTicket is ReentrancyGuard {\n\n  //Counter  \n  using Counters for Counters.Counter;\n  Counters.Counter private _counter;\n\n    //owner \n  address private owner;\n\n  //totalPayments\n  uint private totalPayments;\n\n    //user structs \n  struct User{\n    address walletAddress;\n    string name;\n    string lastname;\n    uint ticketId;\n    uint balance;\n  }\n\nstruct Ticket {\n        uint id;\n        uint seatno;\n        string seatcolor;\n        string addittionalfeature;\n        Status status; \n    }\n\n  //enum to indicate the status of the car\n  enum Status{\n    Available,\n    InUse\n  }\n\n  //ticket struct by TicketType\n  struct TicketType{\n    uint id;\n    string name;\n    string imgUrl;\n    uint buyPrice;\n    uint noOfTicketAvailable;\n    TypeOfTicket typeOfTicket;\n    Ticket[] tickets;\n  }\n\n//   uint public idTicketType=0;\n\n\n  //enum to indicate the status of the car\n  enum TypeOfTicket{\n    Frontstage,\n    Backstage,\n    General,\n    Vip,\n    Others\n  }\n\n  //events\n  event TicketTypeAdded(uint indexed id,string name,string imgUrl,uint buyPrice,uint noOfTicketAvailable,TypeOfTicket typeOfTicket);\n  event TicketTypeMetadataEdited(uint indexed id,string name,string imgUrl,uint buyPrice,uint noOfTicketAvailable,TypeOfTicket typeOfTicket);\n  event TicketAdded(uint indexed id,uint indexed seatno,string seatcolor,string addittionalfeature);\n  event UserAdded(address indexed walletAddress,string name,string lastname);\n  event Deposit(address indexed walletAddress,uint amount);\n  event CheckOut(address indexed walletAddress,uint indexed ticketId);\n  event PaymentMade(address indexed walletAddress,uint amount);\n  event BalanceWithdrawn(address indexed walletAddress,uint amount);\n  event CheckIn(address indexed walletAddress,uint indexed typeofticket,uint indexed tickedid);\n\n  //user mapping \n  mapping(address => User) private users;\n//   users[0]=Ticket(0,\"admin\",\"url\",buyPrice,noOfTicketAvailable,typeOfTicket);\n\n  //car mapping \n  mapping(uint => TicketType) private ticketTypes;\n\n  //constructor\n  constructor(){\n    owner = msg.sender;\n    totalPayments=0;\n  }\n\n  //MODIFIERS\n  //onlyOwner\n  modifier onlyOwner(){\n    require(msg.sender == owner,\"Only the owner can call this function\");\n    _;\n  }\n\n\n  //FUNCTIONS\n  //Execute Functions \n\n  //setOwner #onlyOwner\n  function setOwner(address _newOwner) external onlyOwner{\n    owner = _newOwner;\n  }\n\n  //addUser #nonExisting \n  function addUser(string calldata name, string calldata lastname) external {\n    require(!isUser(msg.sender),\"User already exists\");\n    users[msg.sender] = User(msg.sender,name,lastname,0,0);\n    emit UserAdded(msg.sender,users[msg.sender].name,users[msg.sender].lastname);\n  }\n\n\n  //addTicketType #onlyOwner #nonExistingTicketType\n  function addTicketType(string calldata name,string calldata url,uint buyPrice,uint noOfTicketAvailable,uint typeOfTicket) external onlyOwner{\n    _counter.increment();\n    uint counter=_counter.current();\n    ticketTypes[counter].id=counter;\n    ticketTypes[counter].name=name;\n    ticketTypes[counter].imgUrl=url;\n    ticketTypes[counter].buyPrice=buyPrice;\n    ticketTypes[counter].noOfTicketAvailable=noOfTicketAvailable;\n    if(typeOfTicket==0){\n    ticketTypes[counter].typeOfTicket=TypeOfTicket.Backstage;\n    }else if(typeOfTicket==1){\n    ticketTypes[counter].typeOfTicket=TypeOfTicket.Frontstage;\n    }else if(typeOfTicket==2){\n    ticketTypes[counter].typeOfTicket=TypeOfTicket.General;\n    }else if(typeOfTicket==3){\n    ticketTypes[counter].typeOfTicket=TypeOfTicket.Vip;\n    }else{\n    ticketTypes[counter].typeOfTicket=TypeOfTicket.Others;  \n    }\n    emit TicketTypeAdded(counter,ticketTypes[counter].name,ticketTypes[counter].imgUrl,ticketTypes[counter].buyPrice,ticketTypes[counter].noOfTicketAvailable,ticketTypes[counter].typeOfTicket);\n  }\n\n  //editTicketTypeMetadata #onlyOwner  #existingTicketType\n  function editTicketMetadata(uint id,string calldata name,string calldata imgUrl,uint buyPrice,uint noOfTicketAvailable,uint typeOfTicket) external onlyOwner{\n    require(ticketTypes[id].id != 0, \"Ticket with give ID does not exist\");\n    TicketType storage ticketType=ticketTypes[id];\n    if(bytes(name).length != 0){\n      ticketType.name=name;\n    }\n    if(bytes(imgUrl).length !=0 ){\n      ticketType.imgUrl = imgUrl;\n    }\n    if(buyPrice>0){\n      ticketType.buyPrice=buyPrice;\n    }\n    if(noOfTicketAvailable>0){\n      ticketType.noOfTicketAvailable=noOfTicketAvailable;\n    }\n\n    if(typeOfTicket==0){\n    ticketType.typeOfTicket=TypeOfTicket.Backstage;\n    }else if(typeOfTicket==1){\n    ticketType.typeOfTicket=TypeOfTicket.Frontstage;\n    }else if(typeOfTicket==2){\n    ticketType.typeOfTicket=TypeOfTicket.General;\n    }else if(typeOfTicket==2){\n    ticketType.typeOfTicket=TypeOfTicket.Vip;\n    }else{\n    ticketType.typeOfTicket=TypeOfTicket.Others;   \n    }    \n    emit TicketTypeMetadataEdited(id,ticketType.name,ticketType.imgUrl,ticketType.buyPrice,noOfTicketAvailable,ticketType.typeOfTicket);\n  }\n\n  //addTicket #existing TicketType\n  function addTicket(uint id,uint seatno,string calldata color,string calldata additionalfeature,Status status) external  onlyOwner{\n    uint count=ticketTypes[id].tickets.length;\n    Ticket memory ticket=Ticket(count,seatno,color,additionalfeature,status);\n    ticketTypes[id].tickets.push(ticket);\n    emit TicketAdded(count,seatno, color, additionalfeature);\n  }\n\n  //checkout #existingUser #isCarAvailable #userHasNotRentedACar #UserHasNoDebt\n  function checkOut(uint id,uint ticketid)external {\n    require(isUser(msg.sender),\"user does not exists\");\n    require(ticketTypes[id].noOfTicketAvailable > 0,\"Car is not Available to use\");\n\n    ticketTypes[id].noOfTicketAvailable -=1;\n    ticketTypes[id].tickets[ticketid].status=Status.InUse;\n    emit  CheckOut(msg.sender,id);\n  }\n\n  //checkIn #existingTypeofTicket #existingTicket\n  function checkIn(uint typeofTicket,uint tickedid) external{\n    require(isUser(msg.sender),\"User dooe snot exists\");\n    ticketTypes[typeofTicket].tickets[tickedid].status=Status.Available;\n    emit CheckIn(msg.sender,typeofTicket,tickedid);\n  }\n\n  //deposit #existingUser\n  function deposit() external payable  {\n    require(isUser(msg.sender),\"User does not exist\");\n    users[msg.sender].balance+=msg.value;\n\n    emit Deposit(msg.sender,msg.value);\n  }\n\n\n  //makePayment #existingUser #existingDebt #sufficientBalance\n  function makePayment(uint buyPrice) external{\n    require(isUser(msg.sender),\"User does not exists\");\n\n    uint balance =users[msg.sender].balance;\n\n    require(balance>=buyPrice,\"User has unsufficient balance\");\n\n    totalPayments+=buyPrice;\n    users[msg.sender].balance-=buyPrice;\n    emit PaymentMade(msg.sender,buyPrice);\n  }\n\n\n  //withdrawBalance #existingUser \n  function withdrawBalance(uint amount) external nonReentrant {\n    require(isUser(msg.sender),\"User does not exist\");\n    uint balance = users[msg.sender].balance;\n    require(balance >= amount, \"Insufficient balance to withdraw\");\n    // unchecked {\n      users[msg.sender].balance-=amount;\n    // }\n    (bool success,)=msg.sender.call{value:amount}(\"\");\n    require(success,\"Transfer failed\");\n    emit BalanceWithdrawn(msg.sender,amount);\n  } \n\n\n  //withdrawOwnerBalance #onlyOwner\n  function withdrawOwnerBalance(uint amount) external onlyOwner{\n    require(totalPayments >=amount,\"Insufficient contract balance to withdraw\");\n    (bool success, )=owner.call{value:amount}(\"\");\n    require(success,\"Transfer failed\");\n    unchecked{\n    totalPayments-= amount;\n    }\n  }\n\n  //Query Function \n\n\n  //get Owner \n  function getOwner() external view returns(address) {\n    return owner;\n  }\n\n  //isUser \n  function isUser(address walletAddress)private view returns(bool){\n    return users[walletAddress].walletAddress !=address(0);\n  }\n\n  //getUser #existingUser \n  function getUser(address walletAddress) external view returns(User memory){\n    require(isUser(walletAddress),\"User does not exists\");\n    return users[walletAddress];\n  }\n\n  //getTicketByTypeOfTicket\n  function getTypeOfTicket(uint id) external view returns(TicketType memory){\n    return ticketTypes[id];\n  }\n\n  //getalltickettypes\n  function getALLTypeOfTicket() external view returns(TicketType[] memory){\n    uint counter=_counter.current();\n    TicketType[] memory allTypeOfTicket = new TicketType[](counter);\n    for(uint i=1;i<=counter;i++){\n      allTypeOfTicket[i-1]=ticketTypes[i];\n    }\n    return allTypeOfTicket;\n  }\n\n  //getTicket #existingTicket\n  function getAllTicketsByTypeOfTicket(uint id) external view returns (Ticket[] memory){\n    uint count=ticketTypes[id].tickets.length;\n    Ticket[] memory tickets = new Ticket[](count);\n    for(uint i=1;i<= count;i++){\n      tickets[i]=ticketTypes[id].tickets[i];\n    }    \n    return tickets;\n  }\n\n  function getTicketByTypeOfTicket(uint id,uint ticketid)external view returns (Ticket memory){\n    // require(ticketTypes[typeOfTicket].tickets[ticketid].id !=0 , \"Ticket does not exists\"); \n    return ticketTypes[id].tickets[ticketid];\n  }\n\n\n\n  //getCurrentCount\n  function getCurrentCount() external view returns(uint){\n    return _counter.current();\n  }\n\n\n  //getContractBalance  #onlyOwner\n  function getContractBalance() external view onlyOwner returns(uint){\n    return address(this).balance;\n  }\n\n\n  //getTotalPayment #onlyOwner\n  function getTotalPayments() external view onlyOwner returns(uint){\n    return totalPayments;\n  }\n\n}\n",
  "sourcePath": "D:\\myproject\\solidy_finalproject\\contracts\\bsc\\ConcertTicket.sol",
  "compiler": {
    "name": "solc",
    "version": "0.8.12+commit.f00d7308.Emscripten.clang"
  },
  "schemaVersion": "3.4.16",
  "updatedAt": "2023-10-29T04:56:37.747Z",
  "networkType": "ethereum",
  "devdoc": {
    "kind": "dev",
    "methods": {},
    "version": 1
  },
  "userdoc": {
    "kind": "user",
    "methods": {},
    "version": 1
  },
  "db": {
    "callBytecode": {
      "id": "0xb0fa1f4aaa0bfb5f584f88b358f9043ae035bae218fbc8c88129a9e21c148732"
    },
    "createBytecode": {
      "id": "0x5255c1c1e82271b8a5460df13ad5032aa84a26e168e8f969cc7da832790a3ff2"
    },
    "contract": {
      "id": "0x79cbd8b514830fda880d4be962ed461108d6bc7a87fd266f4e39134f0195bd37"
    }
  }
}