{
  "contractName": "ConcertTicket",
  "abi": [
    {
      "inputs": [],
      "stateMutability": "nonpayable",
      "type": "constructor"
    },
    {
      "anonymous": false,
      "inputs": [
        {
          "indexed": true,
          "internalType": "address",
          "name": "walletAddress",
          "type": "address"
        },
        {
          "indexed": false,
          "internalType": "uint256",
          "name": "amount",
          "type": "uint256"
        }
      ],
      "name": "BalanceWithdrawn",
      "type": "event"
    },
    {
      "anonymous": false,
      "inputs": [
        {
          "indexed": true,
          "internalType": "address",
          "name": "walletAddress",
          "type": "address"
        },
        {
          "indexed": true,
          "internalType": "uint256",
          "name": "typeofticket",
          "type": "uint256"
        },
        {
          "indexed": true,
          "internalType": "uint256",
          "name": "tickedid",
          "type": "uint256"
        }
      ],
      "name": "CheckIn",
      "type": "event"
    },
    {
      "anonymous": false,
      "inputs": [
        {
          "indexed": true,
          "internalType": "address",
          "name": "walletAddress",
          "type": "address"
        },
        {
          "indexed": true,
          "internalType": "uint256",
          "name": "ticketId",
          "type": "uint256"
        }
      ],
      "name": "CheckOut",
      "type": "event"
    },
    {
      "anonymous": false,
      "inputs": [
        {
          "indexed": true,
          "internalType": "address",
          "name": "walletAddress",
          "type": "address"
        },
        {
          "indexed": false,
          "internalType": "uint256",
          "name": "amount",
          "type": "uint256"
        }
      ],
      "name": "Deposit",
      "type": "event"
    },
    {
      "anonymous": false,
      "inputs": [
        {
          "indexed": true,
          "internalType": "address",
          "name": "walletAddress",
          "type": "address"
        },
        {
          "indexed": false,
          "internalType": "uint256",
          "name": "amount",
          "type": "uint256"
        }
      ],
      "name": "PaymentMade",
      "type": "event"
    },
    {
      "anonymous": false,
      "inputs": [
        {
          "indexed": true,
          "internalType": "uint256",
          "name": "id",
          "type": "uint256"
        },
        {
          "indexed": true,
          "internalType": "uint256",
          "name": "seatno",
          "type": "uint256"
        },
        {
          "indexed": false,
          "internalType": "string",
          "name": "seatcolor",
          "type": "string"
        },
        {
          "indexed": false,
          "internalType": "string",
          "name": "addittionalfeature",
          "type": "string"
        }
      ],
      "name": "TicketAdded",
      "type": "event"
    },
    {
      "anonymous": false,
      "inputs": [
        {
          "indexed": true,
          "internalType": "uint256",
          "name": "id",
          "type": "uint256"
        },
        {
          "indexed": false,
          "internalType": "string",
          "name": "name",
          "type": "string"
        },
        {
          "indexed": false,
          "internalType": "string",
          "name": "imgUrl",
          "type": "string"
        },
        {
          "indexed": false,
          "internalType": "uint256",
          "name": "buyPrice",
          "type": "uint256"
        },
        {
          "indexed": false,
          "internalType": "uint256",
          "name": "noOfTicketAvailable",
          "type": "uint256"
        },
        {
          "indexed": false,
          "internalType": "enum ConcertTicket.TypeOfTicket",
          "name": "typeOfTicket",
          "type": "uint8"
        }
      ],
      "name": "TicketTypeAdded",
      "type": "event"
    },
    {
      "anonymous": false,
      "inputs": [
        {
          "indexed": true,
          "internalType": "uint256",
          "name": "id",
          "type": "uint256"
        },
        {
          "indexed": false,
          "internalType": "string",
          "name": "name",
          "type": "string"
        },
        {
          "indexed": false,
          "internalType": "string",
          "name": "imgUrl",
          "type": "string"
        },
        {
          "indexed": false,
          "internalType": "uint256",
          "name": "buyPrice",
          "type": "uint256"
        },
        {
          "indexed": false,
          "internalType": "uint256",
          "name": "noOfTicketAvailable",
          "type": "uint256"
        },
        {
          "indexed": false,
          "internalType": "enum ConcertTicket.TypeOfTicket",
          "name": "typeOfTicket",
          "type": "uint8"
        }
      ],
      "name": "TicketTypeMetadataEdited",
      "type": "event"
    },
    {
      "anonymous": false,
      "inputs": [
        {
          "indexed": true,
          "internalType": "address",
          "name": "walletAddress",
          "type": "address"
        },
        {
          "indexed": false,
          "internalType": "string",
          "name": "name",
          "type": "string"
        },
        {
          "indexed": false,
          "internalType": "string",
          "name": "lastname",
          "type": "string"
        }
      ],
      "name": "UserAdded",
      "type": "event"
    },
    {
      "inputs": [
        {
          "internalType": "address",
          "name": "_newOwner",
          "type": "address"
        }
      ],
      "name": "setOwner",
      "outputs": [],
      "stateMutability": "nonpayable",
      "type": "function"
    },
    {
      "inputs": [
        {
          "internalType": "string",
          "name": "name",
          "type": "string"
        },
        {
          "internalType": "string",
          "name": "lastname",
          "type": "string"
        }
      ],
      "name": "addUser",
      "outputs": [],
      "stateMutability": "nonpayable",
      "type": "function"
    },
    {
      "inputs": [
        {
          "internalType": "string",
          "name": "name",
          "type": "string"
        },
        {
          "internalType": "string",
          "name": "url",
          "type": "string"
        },
        {
          "internalType": "uint256",
          "name": "buyPrice",
          "type": "uint256"
        },
        {
          "internalType": "uint256",
          "name": "noOfTicketAvailable",
          "type": "uint256"
        },
        {
          "internalType": "uint256",
          "name": "typeOfTicket",
          "type": "uint256"
        }
      ],
      "name": "addTicketType",
      "outputs": [],
      "stateMutability": "nonpayable",
      "type": "function"
    },
    {
      "inputs": [
        {
          "internalType": "uint256",
          "name": "id",
          "type": "uint256"
        },
        {
          "internalType": "string",
          "name": "name",
          "type": "string"
        },
        {
          "internalType": "string",
          "name": "imgUrl",
          "type": "string"
        },
        {
          "internalType": "uint256",
          "name": "buyPrice",
          "type": "uint256"
        },
        {
          "internalType": "uint256",
          "name": "noOfTicketAvailable",
          "type": "uint256"
        },
        {
          "internalType": "uint256",
          "name": "typeOfTicket",
          "type": "uint256"
        }
      ],
      "name": "editTicketMetadata",
      "outputs": [],
      "stateMutability": "nonpayable",
      "type": "function"
    },
    {
      "inputs": [
        {
          "internalType": "uint256",
          "name": "id",
          "type": "uint256"
        },
        {
          "internalType": "uint256",
          "name": "seatno",
          "type": "uint256"
        },
        {
          "internalType": "string",
          "name": "color",
          "type": "string"
        },
        {
          "internalType": "string",
          "name": "additionalfeature",
          "type": "string"
        },
        {
          "internalType": "uint256",
          "name": "status",
          "type": "uint256"
        }
      ],
      "name": "addTicket",
      "outputs": [],
      "stateMutability": "nonpayable",
      "type": "function"
    },
    {
      "inputs": [
        {
          "internalType": "uint256",
          "name": "id",
          "type": "uint256"
        },
        {
          "internalType": "uint256",
          "name": "ticketid",
          "type": "uint256"
        }
      ],
      "name": "checkOut",
      "outputs": [],
      "stateMutability": "nonpayable",
      "type": "function"
    },
    {
      "inputs": [
        {
          "internalType": "uint256",
          "name": "typeofTicket",
          "type": "uint256"
        },
        {
          "internalType": "uint256",
          "name": "tickedid",
          "type": "uint256"
        }
      ],
      "name": "checkIn",
      "outputs": [],
      "stateMutability": "nonpayable",
      "type": "function"
    },
    {
      "inputs": [],
      "name": "deposit",
      "outputs": [],
      "stateMutability": "payable",
      "type": "function"
    },
    {
      "inputs": [
        {
          "internalType": "uint256",
          "name": "buyPrice",
          "type": "uint256"
        }
      ],
      "name": "makePayment",
      "outputs": [],
      "stateMutability": "nonpayable",
      "type": "function"
    },
    {
      "inputs": [
        {
          "internalType": "uint256",
          "name": "amount",
          "type": "uint256"
        }
      ],
      "name": "withdrawBalance",
      "outputs": [],
      "stateMutability": "nonpayable",
      "type": "function"
    },
    {
      "inputs": [
        {
          "internalType": "uint256",
          "name": "amount",
          "type": "uint256"
        }
      ],
      "name": "withdrawOwnerBalance",
      "outputs": [],
      "stateMutability": "nonpayable",
      "type": "function"
    },
    {
      "inputs": [],
      "name": "getOwner",
      "outputs": [
        {
          "internalType": "address",
          "name": "",
          "type": "address"
        }
      ],
      "stateMutability": "view",
      "type": "function"
    },
    {
      "inputs": [
        {
          "internalType": "address",
          "name": "walletAddress",
          "type": "address"
        }
      ],
      "name": "getUser",
      "outputs": [
        {
          "components": [
            {
              "internalType": "address",
              "name": "walletAddress",
              "type": "address"
            },
            {
              "internalType": "string",
              "name": "name",
              "type": "string"
            },
            {
              "internalType": "string",
              "name": "lastname",
              "type": "string"
            },
            {
              "internalType": "uint256",
              "name": "ticketId",
              "type": "uint256"
            },
            {
              "internalType": "uint256",
              "name": "balance",
              "type": "uint256"
            }
          ],
          "internalType": "struct ConcertTicket.User",
          "name": "",
          "type": "tuple"
        }
      ],
      "stateMutability": "view",
      "type": "function"
    },
    {
      "inputs": [
        {
          "internalType": "uint256",
          "name": "id",
          "type": "uint256"
        }
      ],
      "name": "getTypeOfTicket",
      "outputs": [
        {
          "components": [
            {
              "internalType": "uint256",
              "name": "id",
              "type": "uint256"
            },
            {
              "internalType": "string",
              "name": "name",
              "type": "string"
            },
            {
              "internalType": "string",
              "name": "imgUrl",
              "type": "string"
            },
            {
              "internalType": "uint256",
              "name": "buyPrice",
              "type": "uint256"
            },
            {
              "internalType": "uint256",
              "name": "noOfTicketAvailable",
              "type": "uint256"
            },
            {
              "internalType": "enum ConcertTicket.TypeOfTicket",
              "name": "typeOfTicket",
              "type": "uint8"
            },
            {
              "components": [
                {
                  "internalType": "uint256",
                  "name": "id",
                  "type": "uint256"
                },
                {
                  "internalType": "uint256",
                  "name": "seatno",
                  "type": "uint256"
                },
                {
                  "internalType": "string",
                  "name": "seatcolor",
                  "type": "string"
                },
                {
                  "internalType": "string",
                  "name": "addittionalfeature",
                  "type": "string"
                },
                {
                  "internalType": "enum ConcertTicket.Status",
                  "name": "status",
                  "type": "uint8"
                }
              ],
              "internalType": "struct ConcertTicket.Ticket[]",
              "name": "tickets",
              "type": "tuple[]"
            }
          ],
          "internalType": "struct ConcertTicket.TicketType",
          "name": "",
          "type": "tuple"
        }
      ],
      "stateMutability": "view",
      "type": "function"
    },
    {
      "inputs": [],
      "name": "getALLTypeOfTicket",
      "outputs": [
        {
          "components": [
            {
              "internalType": "uint256",
              "name": "id",
              "type": "uint256"
            },
            {
              "internalType": "string",
              "name": "name",
              "type": "string"
            },
            {
              "internalType": "string",
              "name": "imgUrl",
              "type": "string"
            },
            {
              "internalType": "uint256",
              "name": "buyPrice",
              "type": "uint256"
            },
            {
              "internalType": "uint256",
              "name": "noOfTicketAvailable",
              "type": "uint256"
            },
            {
              "internalType": "enum ConcertTicket.TypeOfTicket",
              "name": "typeOfTicket",
              "type": "uint8"
            },
            {
              "components": [
                {
                  "internalType": "uint256",
                  "name": "id",
                  "type": "uint256"
                },
                {
                  "internalType": "uint256",
                  "name": "seatno",
                  "type": "uint256"
                },
                {
                  "internalType": "string",
                  "name": "seatcolor",
                  "type": "string"
                },
                {
                  "internalType": "string",
                  "name": "addittionalfeature",
                  "type": "string"
                },
                {
                  "internalType": "enum ConcertTicket.Status",
                  "name": "status",
                  "type": "uint8"
                }
              ],
              "internalType": "struct ConcertTicket.Ticket[]",
              "name": "tickets",
              "type": "tuple[]"
            }
          ],
          "internalType": "struct ConcertTicket.TicketType[]",
          "name": "",
          "type": "tuple[]"
        }
      ],
      "stateMutability": "view",
      "type": "function"
    },
    {
      "inputs": [
        {
          "internalType": "uint256",
          "name": "id",
          "type": "uint256"
        }
      ],
      "name": "getAllTicketsByTypeOfTicket",
      "outputs": [
        {
          "components": [
            {
              "internalType": "uint256",
              "name": "id",
              "type": "uint256"
            },
            {
              "internalType": "uint256",
              "name": "seatno",
              "type": "uint256"
            },
            {
              "internalType": "string",
              "name": "seatcolor",
              "type": "string"
            },
            {
              "internalType": "string",
              "name": "addittionalfeature",
              "type": "string"
            },
            {
              "internalType": "enum ConcertTicket.Status",
              "name": "status",
              "type": "uint8"
            }
          ],
          "internalType": "struct ConcertTicket.Ticket[]",
          "name": "",
          "type": "tuple[]"
        }
      ],
      "stateMutability": "view",
      "type": "function"
    },
    {
      "inputs": [
        {
          "internalType": "uint256",
          "name": "id",
          "type": "uint256"
        },
        {
          "internalType": "uint256",
          "name": "ticketid",
          "type": "uint256"
        }
      ],
      "name": "getTicketByTypeOfTicket",
      "outputs": [
        {
          "components": [
            {
              "internalType": "uint256",
              "name": "id",
              "type": "uint256"
            },
            {
              "internalType": "uint256",
              "name": "seatno",
              "type": "uint256"
            },
            {
              "internalType": "string",
              "name": "seatcolor",
              "type": "string"
            },
            {
              "internalType": "string",
              "name": "addittionalfeature",
              "type": "string"
            },
            {
              "internalType": "enum ConcertTicket.Status",
              "name": "status",
              "type": "uint8"
            }
          ],
          "internalType": "struct ConcertTicket.Ticket",
          "name": "",
          "type": "tuple"
        }
      ],
      "stateMutability": "view",
      "type": "function"
    },
    {
      "inputs": [],
      "name": "getCurrentCount",
      "outputs": [
        {
          "internalType": "uint256",
          "name": "",
          "type": "uint256"
        }
      ],
      "stateMutability": "view",
      "type": "function"
    },
    {
      "inputs": [],
      "name": "getContractBalance",
      "outputs": [
        {
          "internalType": "uint256",
          "name": "",
          "type": "uint256"
        }
      ],
      "stateMutability": "view",
      "type": "function"
    },
    {
      "inputs": [],
      "name": "getTotalPayments",
      "outputs": [
        {
          "internalType": "uint256",
          "name": "",
          "type": "uint256"
        }
      ],
      "stateMutability": "view",
      "type": "function"
    }
  ],
  "bytecode": "0x608060405234801561001057600080fd5b50600160008190555033600260006101000a81548173ffffffffffffffffffffffffffffffffffffffff021916908373ffffffffffffffffffffffffffffffffffffffff160217905550600060038190555061474a806100716000396000f3fe60806040526004361061011f5760003560e01c80636f9fb98a116100a0578063c12f09e911610064578063c12f09e9146103e3578063d0e30db01461040c578063da76d5cd14610416578063dd51babf1461043f578063f516f88e1461046a5761011f565b80636f9fb98a14610310578063708f29a61461033b5780637a755729146103665780638613c3f81461038f578063893d20e8146103b85761011f565b806352699df8116100e757806352699df8146102055780635d681e74146102305780635f60bc82146102595780636ea8e942146102965780636f77926b146102d35761011f565b8063028b08ba14610124578063079eaf341461016157806313af40351461018a5780633c69c657146101b35780635114cb52146101dc575b600080fd5b34801561013057600080fd5b5061014b600480360381019061014691906131ed565b610493565b604051610158919061356a565b60405180910390f35b34801561016d57600080fd5b50610188600480360381019061018391906135f1565b61080f565b005b34801561019657600080fd5b506101b160048036038101906101ac91906136d0565b610ace565b005b3480156101bf57600080fd5b506101da60048036038101906101d591906131ed565b610ba2565b005b3480156101e857600080fd5b5061020360048036038101906101fe91906131ed565b610d59565b005b34801561021157600080fd5b5061021a610eef565b6040516102279190613869565b60405180910390f35b34801561023c57600080fd5b506102576004803603810190610252919061388b565b611318565b005b34801561026557600080fd5b50610280600480360381019061027b91906131ed565b6118f7565b60405161028d91906139cd565b60405180910390f35b3480156102a257600080fd5b506102bd60048036038101906102b891906139ef565b611d36565b6040516102ca9190613aac565b60405180910390f35b3480156102df57600080fd5b506102fa60048036038101906102f591906136d0565b611efa565b6040516103079190613b5a565b60405180910390f35b34801561031c57600080fd5b50610325612129565b6040516103329190613b8b565b60405180910390f35b34801561034757600080fd5b506103506121c1565b60405161035d9190613b8b565b60405180910390f35b34801561037257600080fd5b5061038d60048036038101906103889190613ba6565b61225b565b005b34801561039b57600080fd5b506103b660048036038101906103b191906139ef565b6125da565b005b3480156103c457600080fd5b506103cd612753565b6040516103da9190613c71565b60405180910390f35b3480156103ef57600080fd5b5061040a60048036038101906104059190613c8c565b61277d565b005b610414612a67565b005b34801561042257600080fd5b5061043d600480360381019061043891906131ed565b612b58565b005b34801561044b57600080fd5b50610454612d92565b6040516104619190613b8b565b60405180910390f35b34801561047657600080fd5b50610491600480360381019061048c91906139ef565b612da3565b005b61049b612faf565b600560008381526020019081526020016000206040518060e0016040529081600082015481526020016001820180546104d390613d8a565b80601f01602080910402602001604051908101604052809291908181526020018280546104ff90613d8a565b801561054c5780601f106105215761010080835404028352916020019161054c565b820191906000526020600020905b81548152906001019060200180831161052f57829003601f168201915b5050505050815260200160028201805461056590613d8a565b80601f016020809104026020016040519081016040528092919081815260200182805461059190613d8a565b80156105de5780601f106105b3576101008083540402835291602001916105de565b820191906000526020600020905b8154815290600101906020018083116105c157829003601f168201915b5050505050815260200160038201548152602001600482015481526020016005820160009054906101000a900460ff1660048111156106205761061f6132c2565b5b6004811115610632576106316132c2565b5b815260200160068201805480602002602001604051908101604052809291908181526020016000905b8282101561080057838290600052602060002090600502016040518060a001604052908160008201548152602001600182015481526020016002820180546106a290613d8a565b80601f01602080910402602001604051908101604052809291908181526020018280546106ce90613d8a565b801561071b5780601f106106f05761010080835404028352916020019161071b565b820191906000526020600020905b8154815290600101906020018083116106fe57829003601f168201915b5050505050815260200160038201805461073490613d8a565b80601f016020809104026020016040519081016040528092919081815260200182805461076090613d8a565b80156107ad5780601f10610782576101008083540402835291602001916107ad565b820191906000526020600020905b81548152906001019060200180831161079057829003601f168201915b505050505081526020016004820160009054906101000a900460ff1660018111156107db576107da6132c2565b5b60018111156107ed576107ec6132c2565b5b815250508152602001906001019061065b565b50505050815250509050919050565b61081833612e96565b15610858576040517f08c379a000000000000000000000000000000000000000000000000000000000815260040161084f90613e19565b60405180910390fd5b6040518060a001604052803373ffffffffffffffffffffffffffffffffffffffff16815260200185858080601f016020809104026020016040519081016040528093929190818152602001838380828437600081840152601f19601f82011690508083019250505050505050815260200183838080601f016020809104026020016040519081016040528093929190818152602001838380828437600081840152601f19601f820116905080830192505050505050508152602001600081526020016000815250600460003373ffffffffffffffffffffffffffffffffffffffff1673ffffffffffffffffffffffffffffffffffffffff16815260200190815260200160002060008201518160000160006101000a81548173ffffffffffffffffffffffffffffffffffffffff021916908373ffffffffffffffffffffffffffffffffffffffff16021790555060208201518160010190805190602001906109c1929190612ffe565b5060408201518160020190805190602001906109de929190612ffe565b5060608201518160030155608082015181600401559050503373ffffffffffffffffffffffffffffffffffffffff167f8eab1db142a914aff8b515eedb9177bd7effaef6d714c41e30bdf15206778607600460003373ffffffffffffffffffffffffffffffffffffffff1673ffffffffffffffffffffffffffffffffffffffff168152602001908152602001600020600101600460003373ffffffffffffffffffffffffffffffffffffffff1673ffffffffffffffffffffffffffffffffffffffff168152602001908152602001600020600201604051610ac0929190613ece565b60405180910390a250505050565b600260009054906101000a900473ffffffffffffffffffffffffffffffffffffffff1673ffffffffffffffffffffffffffffffffffffffff163373ffffffffffffffffffffffffffffffffffffffff1614610b5e576040517f08c379a0000000000000000000000000000000000000000000000000000000008152600401610b5590613f77565b60405180910390fd5b80600260006101000a81548173ffffffffffffffffffffffffffffffffffffffff021916908373ffffffffffffffffffffffffffffffffffffffff16021790555050565b600260009054906101000a900473ffffffffffffffffffffffffffffffffffffffff1673ffffffffffffffffffffffffffffffffffffffff163373ffffffffffffffffffffffffffffffffffffffff1614610c32576040517f08c379a0000000000000000000000000000000000000000000000000000000008152600401610c2990613f77565b60405180910390fd5b806003541015610c77576040517f08c379a0000000000000000000000000000000000000000000000000000000008152600401610c6e90614009565b60405180910390fd5b6000600260009054906101000a900473ffffffffffffffffffffffffffffffffffffffff1673ffffffffffffffffffffffffffffffffffffffff1682604051610cbf9061405a565b60006040518083038185875af1925050503d8060008114610cfc576040519150601f19603f3d011682016040523d82523d6000602084013e610d01565b606091505b5050905080610d45576040517f08c379a0000000000000000000000000000000000000000000000000000000008152600401610d3c906140bb565b60405180910390fd5b816003600082825403925050819055505050565b610d6233612e96565b610da1576040517f08c379a0000000000000000000000000000000000000000000000000000000008152600401610d9890614127565b60405180910390fd5b6000600460003373ffffffffffffffffffffffffffffffffffffffff1673ffffffffffffffffffffffffffffffffffffffff16815260200190815260200160002060040154905081811015610e2b576040517f08c379a0000000000000000000000000000000000000000000000000000000008152600401610e2290614193565b60405180910390fd5b8160036000828254610e3d91906141e2565b9250508190555081600460003373ffffffffffffffffffffffffffffffffffffffff1673ffffffffffffffffffffffffffffffffffffffff1681526020019081526020016000206004016000828254610e969190614238565b925050819055503373ffffffffffffffffffffffffffffffffffffffff167f3a2d0e41c506b136330c6e5e0295ccbf0966daece99bfe7c89020cc01dbfb8d683604051610ee39190613b8b565b60405180910390a25050565b60606000610efd6001612f31565b905060008167ffffffffffffffff811115610f1b57610f1a61426c565b5b604051908082528060200260200182016040528015610f5457816020015b610f41612faf565b815260200190600190039081610f395790505b5090506000600190505b82811161130f57600560008281526020019081526020016000206040518060e001604052908160008201548152602001600182018054610f9d90613d8a565b80601f0160208091040260200160405190810160405280929190818152602001828054610fc990613d8a565b80156110165780601f10610feb57610100808354040283529160200191611016565b820191906000526020600020905b815481529060010190602001808311610ff957829003601f168201915b5050505050815260200160028201805461102f90613d8a565b80601f016020809104026020016040519081016040528092919081815260200182805461105b90613d8a565b80156110a85780601f1061107d576101008083540402835291602001916110a8565b820191906000526020600020905b81548152906001019060200180831161108b57829003601f168201915b5050505050815260200160038201548152602001600482015481526020016005820160009054906101000a900460ff1660048111156110ea576110e96132c2565b5b60048111156110fc576110fb6132c2565b5b815260200160068201805480602002602001604051908101604052809291908181526020016000905b828210156112ca57838290600052602060002090600502016040518060a0016040529081600082015481526020016001820154815260200160028201805461116c90613d8a565b80601f016020809104026020016040519081016040528092919081815260200182805461119890613d8a565b80156111e55780601f106111ba576101008083540402835291602001916111e5565b820191906000526020600020905b8154815290600101906020018083116111c857829003601f168201915b505050505081526020016003820180546111fe90613d8a565b80601f016020809104026020016040519081016040528092919081815260200182805461122a90613d8a565b80156112775780601f1061124c57610100808354040283529160200191611277565b820191906000526020600020905b81548152906001019060200180831161125a57829003601f168201915b505050505081526020016004820160009054906101000a900460ff1660018111156112a5576112a46132c2565b5b60018111156112b7576112b66132c2565b5b8152505081526020019060010190611125565b5050505081525050826001836112e09190614238565b815181106112f1576112f061429b565b5b60200260200101819052508080611307906142ca565b915050610f5e565b50809250505090565b600260009054906101000a900473ffffffffffffffffffffffffffffffffffffffff1673ffffffffffffffffffffffffffffffffffffffff163373ffffffffffffffffffffffffffffffffffffffff16146113a8576040517f08c379a000000000000000000000000000000000000000000000000000000000815260040161139f90613f77565b60405180910390fd5b600060056000898152602001908152602001600020600601805480602002602001604051908101604052809291908181526020016000905b8282101561158557838290600052602060002090600502016040518060a0016040529081600082015481526020016001820154815260200160028201805461142790613d8a565b80601f016020809104026020016040519081016040528092919081815260200182805461145390613d8a565b80156114a05780601f10611475576101008083540402835291602001916114a0565b820191906000526020600020905b81548152906001019060200180831161148357829003601f168201915b505050505081526020016003820180546114b990613d8a565b80601f01602080910402602001604051908101604052809291908181526020018280546114e590613d8a565b80156115325780601f1061150757610100808354040283529160200191611532565b820191906000526020600020905b81548152906001019060200180831161151557829003601f168201915b505050505081526020016004820160009054906101000a900460ff1660018111156115605761155f6132c2565b5b6001811115611572576115716132c2565b5b81525050815260200190600101906113e0565b50505050905060008151905060008314156117265760006040518060a001604052808381526020018a815260200189898080601f016020809104026020016040519081016040528093929190818152602001838380828437600081840152601f19601f82011690508083019250505050505050815260200187878080601f016020809104026020016040519081016040528093929190818152602001838380828437600081840152601f19601f8201169050808301925050505050505081526020016000600181111561165b5761165a6132c2565b5b8152509050600560008b8152602001908152602001600020600601819080600181540180825580915050600190039060005260206000209060050201600090919091909150600082015181600001556020820151816001015560408201518160020190805190602001906116d0929190612ffe565b5060608201518160030190805190602001906116ed929190612ffe565b5060808201518160040160006101000a81548160ff02191690836001811115611719576117186132c2565b5b02179055505050506118ad565b60006040518060a001604052808381526020018a815260200189898080601f016020809104026020016040519081016040528093929190818152602001838380828437600081840152601f19601f82011690508083019250505050505050815260200187878080601f016020809104026020016040519081016040528093929190818152602001838380828437600081840152601f19601f8201169050808301925050505050505081526020016001808111156117e6576117e56132c2565b5b8152509050600560008b81526020019081526020016000206006018190806001815401808255809150506001900390600052602060002090600502016000909190919091506000820151816000015560208201518160010155604082015181600201908051906020019061185b929190612ffe565b506060820151816003019080519060200190611878929190612ffe565b5060808201518160040160006101000a81548160ff021916908360018111156118a4576118a36132c2565b5b02179055505050505b87817f02d0cc50df5d7515555cb867e4666a3c3253ea4e7064671c23cec209d6b4e73d898989896040516118e4949392919061434f565b60405180910390a3505050505050505050565b6060600060056000848152602001908152602001600020600601805480602002602001604051908101604052809291908181526020016000905b82821015611ad657838290600052602060002090600502016040518060a0016040529081600082015481526020016001820154815260200160028201805461197890613d8a565b80601f01602080910402602001604051908101604052809291908181526020018280546119a490613d8a565b80156119f15780601f106119c6576101008083540402835291602001916119f1565b820191906000526020600020905b8154815290600101906020018083116119d457829003601f168201915b50505050508152602001600382018054611a0a90613d8a565b80601f0160208091040260200160405190810160405280929190818152602001828054611a3690613d8a565b8015611a835780601f10611a5857610100808354040283529160200191611a83565b820191906000526020600020905b815481529060010190602001808311611a6657829003601f168201915b505050505081526020016004820160009054906101000a900460ff166001811115611ab157611ab06132c2565b5b6001811115611ac357611ac26132c2565b5b8152505081526020019060010190611931565b50505050905060008151905060008167ffffffffffffffff811115611afe57611afd61426c565b5b604051908082528060200260200182016040528015611b3757816020015b611b24613084565b815260200190600190039081611b1c5790505b50905060005b82811015611d2a57600560008781526020019081526020016000206006018181548110611b6d57611b6c61429b565b5b90600052602060002090600502016040518060a00160405290816000820154815260200160018201548152602001600282018054611baa90613d8a565b80601f0160208091040260200160405190810160405280929190818152602001828054611bd690613d8a565b8015611c235780601f10611bf857610100808354040283529160200191611c23565b820191906000526020600020905b815481529060010190602001808311611c0657829003601f168201915b50505050508152602001600382018054611c3c90613d8a565b80601f0160208091040260200160405190810160405280929190818152602001828054611c6890613d8a565b8015611cb55780601f10611c8a57610100808354040283529160200191611cb5565b820191906000526020600020905b815481529060010190602001808311611c9857829003601f168201915b505050505081526020016004820160009054906101000a900460ff166001811115611ce357611ce26132c2565b5b6001811115611cf557611cf46132c2565b5b81525050828281518110611d0c57611d0b61429b565b5b60200260200101819052508080611d22906142ca565b915050611b3d565b50809350505050919050565b611d3e613084565b600560008481526020019081526020016000206006018281548110611d6657611d6561429b565b5b90600052602060002090600502016040518060a00160405290816000820154815260200160018201548152602001600282018054611da390613d8a565b80601f0160208091040260200160405190810160405280929190818152602001828054611dcf90613d8a565b8015611e1c5780601f10611df157610100808354040283529160200191611e1c565b820191906000526020600020905b815481529060010190602001808311611dff57829003601f168201915b50505050508152602001600382018054611e3590613d8a565b80601f0160208091040260200160405190810160405280929190818152602001828054611e6190613d8a565b8015611eae5780601f10611e8357610100808354040283529160200191611eae565b820191906000526020600020905b815481529060010190602001808311611e9157829003601f168201915b505050505081526020016004820160009054906101000a900460ff166001811115611edc57611edb6132c2565b5b6001811115611eee57611eed6132c2565b5b81525050905092915050565b611f026130c5565b611f0b82612e96565b611f4a576040517f08c379a0000000000000000000000000000000000000000000000000000000008152600401611f4190614127565b60405180910390fd5b600460008373ffffffffffffffffffffffffffffffffffffffff1673ffffffffffffffffffffffffffffffffffffffff1681526020019081526020016000206040518060a00160405290816000820160009054906101000a900473ffffffffffffffffffffffffffffffffffffffff1673ffffffffffffffffffffffffffffffffffffffff1673ffffffffffffffffffffffffffffffffffffffff168152602001600182018054611ffa90613d8a565b80601f016020809104026020016040519081016040528092919081815260200182805461202690613d8a565b80156120735780601f1061204857610100808354040283529160200191612073565b820191906000526020600020905b81548152906001019060200180831161205657829003601f168201915b5050505050815260200160028201805461208c90613d8a565b80601f01602080910402602001604051908101604052809291908181526020018280546120b890613d8a565b80156121055780601f106120da57610100808354040283529160200191612105565b820191906000526020600020905b8154815290600101906020018083116120e857829003601f168201915b50505050508152602001600382015481526020016004820154815250509050919050565b6000600260009054906101000a900473ffffffffffffffffffffffffffffffffffffffff1673ffffffffffffffffffffffffffffffffffffffff163373ffffffffffffffffffffffffffffffffffffffff16146121bb576040517f08c379a00000000000000000000000000000000000000000000000000000000081526004016121b290613f77565b60405180910390fd5b47905090565b6000600260009054906101000a900473ffffffffffffffffffffffffffffffffffffffff1673ffffffffffffffffffffffffffffffffffffffff163373ffffffffffffffffffffffffffffffffffffffff1614612253576040517f08c379a000000000000000000000000000000000000000000000000000000000815260040161224a90613f77565b60405180910390fd5b600354905090565b600260009054906101000a900473ffffffffffffffffffffffffffffffffffffffff1673ffffffffffffffffffffffffffffffffffffffff163373ffffffffffffffffffffffffffffffffffffffff16146122eb576040517f08c379a00000000000000000000000000000000000000000000000000000000081526004016122e290613f77565b60405180910390fd5b6122f56001612f3f565b60006123016001612f31565b9050806005600083815260200190815260200160002060000181905550878760056000848152602001908152602001600020600101919061234392919061310a565b50858560056000848152602001908152602001600020600201919061236992919061310a565b5083600560008381526020019081526020016000206003018190555082600560008381526020019081526020016000206004018190555060008214156123ed5760016005600083815260200190815260200160002060050160006101000a81548160ff021916908360048111156123e3576123e26132c2565b5b0217905550612517565b600182141561243a5760006005600083815260200190815260200160002060050160006101000a81548160ff021916908360048111156124305761242f6132c2565b5b0217905550612516565b60028214156124875760026005600083815260200190815260200160002060050160006101000a81548160ff0219169083600481111561247d5761247c6132c2565b5b0217905550612515565b60038214156124d45760036005600083815260200190815260200160002060050160006101000a81548160ff021916908360048111156124ca576124c96132c2565b5b0217905550612514565b60046005600083815260200190815260200160002060050160006101000a81548160ff0219169083600481111561250e5761250d6132c2565b5b02179055505b5b5b5b807f70ac2509a95744d53f3703d09f6ef45f0298b42908aee92a0f86d6df2ab7a28c6005600084815260200190815260200160002060010160056000858152602001908152602001600020600201600560008681526020019081526020016000206003015460056000878152602001908152602001600020600401546005600088815260200190815260200160002060050160009054906101000a900460ff166040516125c8959493929190614399565b60405180910390a25050505050505050565b6125e333612e96565b612622576040517f08c379a000000000000000000000000000000000000000000000000000000000815260040161261990614446565b60405180910390fd5b600060056000848152602001908152602001600020600401541161267b576040517f08c379a0000000000000000000000000000000000000000000000000000000008152600401612672906144b2565b60405180910390fd5b60016005600084815260200190815260200160002060040160008282546126a29190614238565b9250508190555060016005600084815260200190815260200160002060060182815481106126d3576126d261429b565b5b906000526020600020906005020160040160006101000a81548160ff02191690836001811115612706576127056132c2565b5b0217905550813373ffffffffffffffffffffffffffffffffffffffff167ff65ce03794824579bcd95d8c6743ffc10c4a5e7405fb3876c1abf81453105c4260405160405180910390a35050565b6000600260009054906101000a900473ffffffffffffffffffffffffffffffffffffffff16905090565b600260009054906101000a900473ffffffffffffffffffffffffffffffffffffffff1673ffffffffffffffffffffffffffffffffffffffff163373ffffffffffffffffffffffffffffffffffffffff161461280d576040517f08c379a000000000000000000000000000000000000000000000000000000000815260040161280490613f77565b60405180910390fd5b6000600560008a8152602001908152602001600020600001541415612867576040517f08c379a000000000000000000000000000000000000000000000000000000000815260040161285e90614544565b60405180910390fd5b6000600560008a815260200190815260200160002090506000888890501461289e57878782600101919061289c92919061310a565b505b600086869050146128be5785858260020191906128bc92919061310a565b505b60008411156128d1578381600301819055505b60008311156128e4578281600401819055505b600082141561291f5760018160050160006101000a81548160ff02191690836004811115612915576129146132c2565b5b0217905550612a01565b600182141561295a5760008160050160006101000a81548160ff021916908360048111156129505761294f6132c2565b5b0217905550612a00565b60028214156129955760028160050160006101000a81548160ff0219169083600481111561298b5761298a6132c2565b5b02179055506129ff565b60028214156129d05760038160050160006101000a81548160ff021916908360048111156129c6576129c56132c2565b5b02179055506129fe565b60048160050160006101000a81548160ff021916908360048111156129f8576129f76132c2565b5b02179055505b5b5b5b887f417f3443a9ef8c447a4bfd8732fa9625e76d8a0d8b93ed4297faeb0bc258d9a382600101836002018460030154878660050160009054906101000a900460ff16604051612a54959493929190614399565b60405180910390a2505050505050505050565b612a7033612e96565b612aaf576040517f08c379a0000000000000000000000000000000000000000000000000000000008152600401612aa6906145b0565b60405180910390fd5b34600460003373ffffffffffffffffffffffffffffffffffffffff1673ffffffffffffffffffffffffffffffffffffffff1681526020019081526020016000206004016000828254612b0191906141e2565b925050819055503373ffffffffffffffffffffffffffffffffffffffff167fe1fffcc4923d04b559f4d29a8bfc6cda04eb5b0d3c460751c2402c5c5cc9109c34604051612b4e9190613b8b565b60405180910390a2565b612b60612f55565b612b6933612e96565b612ba8576040517f08c379a0000000000000000000000000000000000000000000000000000000008152600401612b9f906145b0565b60405180910390fd5b6000600460003373ffffffffffffffffffffffffffffffffffffffff1673ffffffffffffffffffffffffffffffffffffffff16815260200190815260200160002060040154905081811015612c32576040517f08c379a0000000000000000000000000000000000000000000000000000000008152600401612c299061461c565b60405180910390fd5b81600460003373ffffffffffffffffffffffffffffffffffffffff1673ffffffffffffffffffffffffffffffffffffffff1681526020019081526020016000206004016000828254612c849190614238565b9250508190555060003373ffffffffffffffffffffffffffffffffffffffff1683604051612cb19061405a565b60006040518083038185875af1925050503d8060008114612cee576040519150601f19603f3d011682016040523d82523d6000602084013e612cf3565b606091505b5050905080612d37576040517f08c379a0000000000000000000000000000000000000000000000000000000008152600401612d2e906140bb565b60405180910390fd5b3373ffffffffffffffffffffffffffffffffffffffff167fddc398b321237a8d40ac914388309c2f52a08c134e4dc4ce61e32f57cb7d80f184604051612d7d9190613b8b565b60405180910390a25050612d8f612fa5565b50565b6000612d9e6001612f31565b905090565b612dac33612e96565b612deb576040517f08c379a0000000000000000000000000000000000000000000000000000000008152600401612de290614688565b60405180910390fd5b6000600560008481526020019081526020016000206006018281548110612e1557612e1461429b565b5b906000526020600020906005020160040160006101000a81548160ff02191690836001811115612e4857612e476132c2565b5b021790555080823373ffffffffffffffffffffffffffffffffffffffff167fb9cfea4717f167774a6e8643c33472935d3ef918453525eefca6936078b7cfdd60405160405180910390a45050565b60008073ffffffffffffffffffffffffffffffffffffffff16600460008473ffffffffffffffffffffffffffffffffffffffff1673ffffffffffffffffffffffffffffffffffffffff16815260200190815260200160002060000160009054906101000a900473ffffffffffffffffffffffffffffffffffffffff1673ffffffffffffffffffffffffffffffffffffffff1614159050919050565b600081600001549050919050565b6001816000016000828254019250508190555050565b60026000541415612f9b576040517f08c379a0000000000000000000000000000000000000000000000000000000008152600401612f92906146f4565b60405180910390fd5b6002600081905550565b6001600081905550565b6040518060e00160405280600081526020016060815260200160608152602001600081526020016000815260200160006004811115612ff157612ff06132c2565b5b8152602001606081525090565b82805461300a90613d8a565b90600052602060002090601f01602090048101928261302c5760008555613073565b82601f1061304557805160ff1916838001178555613073565b82800160010185558215613073579182015b82811115613072578251825591602001919060010190613057565b5b5090506130809190613190565b5090565b6040518060a0016040528060008152602001600081526020016060815260200160608152602001600060018111156130bf576130be6132c2565b5b81525090565b6040518060a00160405280600073ffffffffffffffffffffffffffffffffffffffff168152602001606081526020016060815260200160008152602001600081525090565b82805461311690613d8a565b90600052602060002090601f016020900481019282613138576000855561317f565b82601f1061315157803560ff191683800117855561317f565b8280016001018555821561317f579182015b8281111561317e578235825591602001919060010190613163565b5b50905061318c9190613190565b5090565b5b808211156131a9576000816000905550600101613191565b5090565b600080fd5b600080fd5b6000819050919050565b6131ca816131b7565b81146131d557600080fd5b50565b6000813590506131e7816131c1565b92915050565b600060208284031215613203576132026131ad565b5b6000613211848285016131d8565b91505092915050565b613223816131b7565b82525050565b600081519050919050565b600082825260208201905092915050565b60005b83811015613263578082015181840152602081019050613248565b83811115613272576000848401525b50505050565b6000601f19601f8301169050919050565b600061329482613229565b61329e8185613234565b93506132ae818560208601613245565b6132b781613278565b840191505092915050565b7f4e487b7100000000000000000000000000000000000000000000000000000000600052602160045260246000fd5b60058110613302576133016132c2565b5b50565b6000819050613313826132f1565b919050565b600061332382613305565b9050919050565b61333381613318565b82525050565b600081519050919050565b600082825260208201905092915050565b6000819050602082019050919050565b60028110613376576133756132c2565b5b50565b600081905061338782613365565b919050565b600061339782613379565b9050919050565b6133a78161338c565b82525050565b600060a0830160008301516133c5600086018261321a565b5060208301516133d8602086018261321a565b50604083015184820360408601526133f08282613289565b9150506060830151848203606086015261340a8282613289565b915050608083015161341f608086018261339e565b508091505092915050565b600061343683836133ad565b905092915050565b6000602082019050919050565b600061345682613339565b6134608185613344565b93508360208202850161347285613355565b8060005b858110156134ae578484038952815161348f858261342a565b945061349a8361343e565b925060208a01995050600181019050613476565b50829750879550505050505092915050565b600060e0830160008301516134d8600086018261321a565b50602083015184820360208601526134f08282613289565b9150506040830151848203604086015261350a8282613289565b915050606083015161351f606086018261321a565b506080830151613532608086018261321a565b5060a083015161354560a086018261332a565b5060c083015184820360c086015261355d828261344b565b9150508091505092915050565b6000602082019050818103600083015261358481846134c0565b905092915050565b600080fd5b600080fd5b600080fd5b60008083601f8401126135b1576135b061358c565b5b8235905067ffffffffffffffff8111156135ce576135cd613591565b5b6020830191508360018202830111156135ea576135e9613596565b5b9250929050565b6000806000806040858703121561360b5761360a6131ad565b5b600085013567ffffffffffffffff811115613629576136286131b2565b5b6136358782880161359b565b9450945050602085013567ffffffffffffffff811115613658576136576131b2565b5b6136648782880161359b565b925092505092959194509250565b600073ffffffffffffffffffffffffffffffffffffffff82169050919050565b600061369d82613672565b9050919050565b6136ad81613692565b81146136b857600080fd5b50565b6000813590506136ca816136a4565b92915050565b6000602082840312156136e6576136e56131ad565b5b60006136f4848285016136bb565b91505092915050565b600081519050919050565b600082825260208201905092915050565b6000819050602082019050919050565b600060e083016000830151613741600086018261321a565b50602083015184820360208601526137598282613289565b915050604083015184820360408601526137738282613289565b9150506060830151613788606086018261321a565b50608083015161379b608086018261321a565b5060a08301516137ae60a086018261332a565b5060c083015184820360c08601526137c6828261344b565b9150508091505092915050565b60006137df8383613729565b905092915050565b6000602082019050919050565b60006137ff826136fd565b6138098185613708565b93508360208202850161381b85613719565b8060005b85811015613857578484038952815161383885826137d3565b9450613843836137e7565b925060208a0199505060018101905061381f565b50829750879550505050505092915050565b6000602082019050818103600083015261388381846137f4565b905092915050565b600080600080600080600060a0888a0312156138aa576138a96131ad565b5b60006138b88a828b016131d8565b97505060206138c98a828b016131d8565b965050604088013567ffffffffffffffff8111156138ea576138e96131b2565b5b6138f68a828b0161359b565b9550955050606088013567ffffffffffffffff811115613919576139186131b2565b5b6139258a828b0161359b565b935093505060806139388a828b016131d8565b91505092959891949750929550565b600082825260208201905092915050565b600061396382613339565b61396d8185613947565b93508360208202850161397f85613355565b8060005b858110156139bb578484038952815161399c858261342a565b94506139a78361343e565b925060208a01995050600181019050613983565b50829750879550505050505092915050565b600060208201905081810360008301526139e78184613958565b905092915050565b60008060408385031215613a0657613a056131ad565b5b6000613a14858286016131d8565b9250506020613a25858286016131d8565b9150509250929050565b600060a083016000830151613a47600086018261321a565b506020830151613a5a602086018261321a565b5060408301518482036040860152613a728282613289565b91505060608301518482036060860152613a8c8282613289565b9150506080830151613aa1608086018261339e565b508091505092915050565b60006020820190508181036000830152613ac68184613a2f565b905092915050565b613ad781613692565b82525050565b600060a083016000830151613af56000860182613ace565b5060208301518482036020860152613b0d8282613289565b91505060408301518482036040860152613b278282613289565b9150506060830151613b3c606086018261321a565b506080830151613b4f608086018261321a565b508091505092915050565b60006020820190508181036000830152613b748184613add565b905092915050565b613b85816131b7565b82525050565b6000602082019050613ba06000830184613b7c565b92915050565b600080600080600080600060a0888a031215613bc557613bc46131ad565b5b600088013567ffffffffffffffff811115613be357613be26131b2565b5b613bef8a828b0161359b565b9750975050602088013567ffffffffffffffff811115613c1257613c116131b2565b5b613c1e8a828b0161359b565b95509550506040613c318a828b016131d8565b9350506060613c428a828b016131d8565b9250506080613c538a828b016131d8565b91505092959891949750929550565b613c6b81613692565b82525050565b6000602082019050613c866000830184613c62565b92915050565b60008060008060008060008060c0898b031215613cac57613cab6131ad565b5b6000613cba8b828c016131d8565b985050602089013567ffffffffffffffff811115613cdb57613cda6131b2565b5b613ce78b828c0161359b565b9750975050604089013567ffffffffffffffff811115613d0a57613d096131b2565b5b613d168b828c0161359b565b95509550506060613d298b828c016131d8565b9350506080613d3a8b828c016131d8565b92505060a0613d4b8b828c016131d8565b9150509295985092959890939650565b7f4e487b7100000000000000000000000000000000000000000000000000000000600052602260045260246000fd5b60006002820490506001821680613da257607f821691505b60208210811415613db657613db5613d5b565b5b50919050565b600082825260208201905092915050565b7f5573657220616c72656164792065786973747300000000000000000000000000600082015250565b6000613e03601383613dbc565b9150613e0e82613dcd565b602082019050919050565b60006020820190508181036000830152613e3281613df6565b9050919050565b60008190508160005260206000209050919050565b60008154613e5b81613d8a565b613e658186613dbc565b94506001821660008114613e805760018114613e9257613ec5565b60ff1983168652602086019350613ec5565b613e9b85613e39565b60005b83811015613ebd57815481890152600182019150602081019050613e9e565b808801955050505b50505092915050565b60006040820190508181036000830152613ee88185613e4e565b90508181036020830152613efc8184613e4e565b90509392505050565b7f4f6e6c7920746865206f776e65722063616e2063616c6c20746869732066756e60008201527f6374696f6e000000000000000000000000000000000000000000000000000000602082015250565b6000613f61602583613dbc565b9150613f6c82613f05565b604082019050919050565b60006020820190508181036000830152613f9081613f54565b9050919050565b7f496e73756666696369656e7420636f6e74726163742062616c616e636520746f60008201527f2077697468647261770000000000000000000000000000000000000000000000602082015250565b6000613ff3602983613dbc565b9150613ffe82613f97565b604082019050919050565b6000602082019050818103600083015261402281613fe6565b9050919050565b600081905092915050565b50565b6000614044600083614029565b915061404f82614034565b600082019050919050565b600061406582614037565b9150819050919050565b7f5472616e73666572206661696c65640000000000000000000000000000000000600082015250565b60006140a5600f83613dbc565b91506140b08261406f565b602082019050919050565b600060208201905081810360008301526140d481614098565b9050919050565b7f5573657220646f6573206e6f7420657869737473000000000000000000000000600082015250565b6000614111601483613dbc565b915061411c826140db565b602082019050919050565b6000602082019050818103600083015261414081614104565b9050919050565b7f557365722068617320756e73756666696369656e742062616c616e6365000000600082015250565b600061417d601d83613dbc565b915061418882614147565b602082019050919050565b600060208201905081810360008301526141ac81614170565b9050919050565b7f4e487b7100000000000000000000000000000000000000000000000000000000600052601160045260246000fd5b60006141ed826131b7565b91506141f8836131b7565b9250827fffffffffffffffffffffffffffffffffffffffffffffffffffffffffffffffff0382111561422d5761422c6141b3565b5b828201905092915050565b6000614243826131b7565b915061424e836131b7565b925082821015614261576142606141b3565b5b828203905092915050565b7f4e487b7100000000000000000000000000000000000000000000000000000000600052604160045260246000fd5b7f4e487b7100000000000000000000000000000000000000000000000000000000600052603260045260246000fd5b60006142d5826131b7565b91507fffffffffffffffffffffffffffffffffffffffffffffffffffffffffffffffff821415614308576143076141b3565b5b600182019050919050565b82818337600083830152505050565b600061432e8385613dbc565b935061433b838584614313565b61434483613278565b840190509392505050565b6000604082019050818103600083015261436a818688614322565b9050818103602083015261437f818486614322565b905095945050505050565b61439381613318565b82525050565b600060a08201905081810360008301526143b38188613e4e565b905081810360208301526143c78187613e4e565b90506143d66040830186613b7c565b6143e36060830185613b7c565b6143f0608083018461438a565b9695505050505050565b7f7573657220646f6573206e6f7420657869737473000000000000000000000000600082015250565b6000614430601483613dbc565b915061443b826143fa565b602082019050919050565b6000602082019050818103600083015261445f81614423565b9050919050565b7f436172206973206e6f7420417661696c61626c6520746f207573650000000000600082015250565b600061449c601b83613dbc565b91506144a782614466565b602082019050919050565b600060208201905081810360008301526144cb8161448f565b9050919050565b7f5469636b65742077697468206769766520494420646f6573206e6f742065786960008201527f7374000000000000000000000000000000000000000000000000000000000000602082015250565b600061452e602283613dbc565b9150614539826144d2565b604082019050919050565b6000602082019050818103600083015261455d81614521565b9050919050565b7f5573657220646f6573206e6f7420657869737400000000000000000000000000600082015250565b600061459a601383613dbc565b91506145a582614564565b602082019050919050565b600060208201905081810360008301526145c98161458d565b9050919050565b7f496e73756666696369656e742062616c616e636520746f207769746864726177600082015250565b6000614606602083613dbc565b9150614611826145d0565b602082019050919050565b60006020820190508181036000830152614635816145f9565b9050919050565b7f5573657220646f6f6520736e6f74206578697374730000000000000000000000600082015250565b6000614672601583613dbc565b915061467d8261463c565b602082019050919050565b600060208201905081810360008301526146a181614665565b9050919050565b7f5265656e7472616e637947756172643a207265656e7472616e742063616c6c00600082015250565b60006146de601f83613dbc565b91506146e9826146a8565b602082019050919050565b6000602082019050818103600083015261470d816146d1565b905091905056fea26469706673582212203ccc99e5b8b6ae1f670778fed869077108af56b76bc8ec48cf98f1470501a0c964736f6c634300080c0033",
  "immutableReferences": {},
  "source": "pragma solidity 0.8.12;\nimport \"../../node_modules/@openzeppelin/contracts/utils/Counters.sol\"; \nimport \"../../node_modules/@openzeppelin/contracts/security/ReentrancyGuard.sol\";\n\n\n// pragma solidity ^0.8.12;\n// import \"@openzeppelin/contracts/utils/Counters.sol\";\n// import \"@openzeppelin/contracts/security/ReentrancyGuard.sol\";\n\n// SPDX-License-Identifier: MIT\n// pragma solidity 0.8.12;\n// import \"../../node_modules/@openzeppelin/contracts/utils/Counters.sol\"; \n// import \"../../node_modules/@openzeppelin/contracts/security/ReentrancyGuard.sol\";\n\n\ncontract ConcertTicket is ReentrancyGuard {\n\n  //Counter  \n  using Counters for Counters.Counter;\n  Counters.Counter private _counter;\n\n    //owner \n  address private owner;\n\n  //totalPayments\n  uint private totalPayments;\n\n    //user structs \n  struct User{\n    address walletAddress;\n    string name;\n    string lastname;\n    uint ticketId;\n    uint balance;\n  }\n\nstruct Ticket {\n        uint id;\n        uint seatno;\n        string seatcolor;\n        string addittionalfeature;\n        Status status; \n    }\n\n  //enum to indicate the status of the car\n  enum Status{\n    Available,\n    InUse\n  }\n\n  //ticket struct by TicketType\n  struct TicketType{\n    uint id;\n    string name;\n    string imgUrl;\n    uint buyPrice;\n    uint noOfTicketAvailable;\n    TypeOfTicket typeOfTicket;\n    Ticket[] tickets;\n  }\n\n//   uint public idTicketType=0;\n\n\n  //enum to indicate the status of the car\n  enum TypeOfTicket{\n    Frontstage,\n    Backstage,\n    General,\n    Vip,\n    Others\n  }\n\n  //events\n  event TicketTypeAdded(uint indexed id,string name,string imgUrl,uint buyPrice,uint noOfTicketAvailable,TypeOfTicket typeOfTicket);\n  event TicketTypeMetadataEdited(uint indexed id,string name,string imgUrl,uint buyPrice,uint noOfTicketAvailable,TypeOfTicket typeOfTicket);\n  event TicketAdded(uint indexed id,uint indexed seatno,string seatcolor,string addittionalfeature);\n  event UserAdded(address indexed walletAddress,string name,string lastname);\n  event Deposit(address indexed walletAddress,uint amount);\n  event CheckOut(address indexed walletAddress,uint indexed ticketId);\n  event PaymentMade(address indexed walletAddress,uint amount);\n  event BalanceWithdrawn(address indexed walletAddress,uint amount);\n  event CheckIn(address indexed walletAddress,uint indexed typeofticket,uint indexed tickedid);\n\n  //user mapping \n  mapping(address => User) private users;\n//   users[0]=Ticket(0,\"admin\",\"url\",buyPrice,noOfTicketAvailable,typeOfTicket);\n\n  //car mapping \n  mapping(uint => TicketType) private ticketTypes;\n\n  //constructor\n  constructor(){\n    owner = msg.sender;\n    totalPayments=0;\n  }\n\n  //MODIFIERS\n  //onlyOwner\n  modifier onlyOwner(){\n    require(msg.sender == owner,\"Only the owner can call this function\");\n    _;\n  }\n\n\n  //FUNCTIONS\n  //Execute Functions \n\n  //setOwner #onlyOwner\n  function setOwner(address _newOwner) external onlyOwner{\n    owner = _newOwner;\n  }\n\n  //addUser #nonExisting \n  function addUser(string calldata name, string calldata lastname) external {\n    require(!isUser(msg.sender),\"User already exists\");\n    users[msg.sender] = User(msg.sender,name,lastname,0,0);\n    emit UserAdded(msg.sender,users[msg.sender].name,users[msg.sender].lastname);\n  }\n\n\n  //addTicketType #onlyOwner #nonExistingTicketType\n  function addTicketType(string calldata name,string calldata url,uint buyPrice,uint noOfTicketAvailable,uint typeOfTicket) external onlyOwner{\n    _counter.increment();\n    uint counter=_counter.current();\n    ticketTypes[counter].id=counter;\n    ticketTypes[counter].name=name;\n    ticketTypes[counter].imgUrl=url;\n    ticketTypes[counter].buyPrice=buyPrice;\n    ticketTypes[counter].noOfTicketAvailable=noOfTicketAvailable;\n    if(typeOfTicket==0){\n    ticketTypes[counter].typeOfTicket=TypeOfTicket.Backstage;\n    }else if(typeOfTicket==1){\n    ticketTypes[counter].typeOfTicket=TypeOfTicket.Frontstage;\n    }else if(typeOfTicket==2){\n    ticketTypes[counter].typeOfTicket=TypeOfTicket.General;\n    }else if(typeOfTicket==3){\n    ticketTypes[counter].typeOfTicket=TypeOfTicket.Vip;\n    }else{\n    ticketTypes[counter].typeOfTicket=TypeOfTicket.Others;  \n    }\n    emit TicketTypeAdded(counter,ticketTypes[counter].name,ticketTypes[counter].imgUrl,ticketTypes[counter].buyPrice,ticketTypes[counter].noOfTicketAvailable,ticketTypes[counter].typeOfTicket);\n  }\n\n  //editTicketTypeMetadata #onlyOwner  #existingTicketType\n  function editTicketMetadata(uint id,string calldata name,string calldata imgUrl,uint buyPrice,uint noOfTicketAvailable,uint typeOfTicket) external onlyOwner{\n    require(ticketTypes[id].id != 0, \"Ticket with give ID does not exist\");\n    TicketType storage ticketType=ticketTypes[id];\n    if(bytes(name).length != 0){\n      ticketType.name=name;\n    }\n    if(bytes(imgUrl).length !=0 ){\n      ticketType.imgUrl = imgUrl;\n    }\n    if(buyPrice>0){\n      ticketType.buyPrice=buyPrice;\n    }\n    if(noOfTicketAvailable>0){\n      ticketType.noOfTicketAvailable=noOfTicketAvailable;\n    }\n\n    if(typeOfTicket==0){\n    ticketType.typeOfTicket=TypeOfTicket.Backstage;\n    }else if(typeOfTicket==1){\n    ticketType.typeOfTicket=TypeOfTicket.Frontstage;\n    }else if(typeOfTicket==2){\n    ticketType.typeOfTicket=TypeOfTicket.General;\n    }else if(typeOfTicket==2){\n    ticketType.typeOfTicket=TypeOfTicket.Vip;\n    }else{\n    ticketType.typeOfTicket=TypeOfTicket.Others;   \n    }    \n    emit TicketTypeMetadataEdited(id,ticketType.name,ticketType.imgUrl,ticketType.buyPrice,noOfTicketAvailable,ticketType.typeOfTicket);\n  }\n\n  //addTicket #existing TicketType\n  function addTicket(uint id,uint seatno,string calldata color,string calldata additionalfeature,uint status) external  onlyOwner{\n    // uint count=ticketTypes[id].tickets.length;\n\n    Ticket[] memory temp =ticketTypes[id].tickets;\n    uint count=temp.length;\n\n    if(status==0){\n  Ticket memory ticket=Ticket(count,seatno,color,additionalfeature,Status.Available);\n  ticketTypes[id].tickets.push(ticket);\n    }else{\n  Ticket memory ticket=Ticket(count,seatno,color,additionalfeature,Status.InUse);\n  ticketTypes[id].tickets.push(ticket);\n    }\n    \n    \n    emit TicketAdded(count,seatno, color, additionalfeature);\n  }\n\n  //checkout #existingUser #isCarAvailable #userHasNotRentedACar #UserHasNoDebt\n  function checkOut(uint id,uint ticketid)external {\n    require(isUser(msg.sender),\"user does not exists\");\n    require(ticketTypes[id].noOfTicketAvailable > 0,\"Car is not Available to use\");\n\n    ticketTypes[id].noOfTicketAvailable -=1;\n    ticketTypes[id].tickets[ticketid].status=Status.InUse;\n    emit  CheckOut(msg.sender,id);\n  }\n\n  //checkIn #existingTypeofTicket #existingTicket\n  function checkIn(uint typeofTicket,uint tickedid) external{\n    require(isUser(msg.sender),\"User dooe snot exists\");\n    ticketTypes[typeofTicket].tickets[tickedid].status=Status.Available;\n    emit CheckIn(msg.sender,typeofTicket,tickedid);\n  }\n\n  //deposit #existingUser\n  function deposit() external payable  {\n    require(isUser(msg.sender),\"User does not exist\");\n    users[msg.sender].balance+=msg.value;\n\n    emit Deposit(msg.sender,msg.value);\n  }\n\n\n  //makePayment #existingUser #existingDebt #sufficientBalance\n  function makePayment(uint buyPrice) external{\n    require(isUser(msg.sender),\"User does not exists\");\n\n    uint balance =users[msg.sender].balance;\n\n    require(balance>=buyPrice,\"User has unsufficient balance\");\n\n    totalPayments+=buyPrice;\n    users[msg.sender].balance-=buyPrice;\n    emit PaymentMade(msg.sender,buyPrice);\n  }\n\n\n  //withdrawBalance #existingUser \n  function withdrawBalance(uint amount) external nonReentrant {\n    require(isUser(msg.sender),\"User does not exist\");\n    uint balance = users[msg.sender].balance;\n    require(balance >= amount, \"Insufficient balance to withdraw\");\n    // unchecked {\n      users[msg.sender].balance-=amount;\n    // }\n    (bool success,)=msg.sender.call{value:amount}(\"\");\n    require(success,\"Transfer failed\");\n    emit BalanceWithdrawn(msg.sender,amount);\n  } \n\n\n  //withdrawOwnerBalance #onlyOwner\n  function withdrawOwnerBalance(uint amount) external onlyOwner{\n    require(totalPayments >=amount,\"Insufficient contract balance to withdraw\");\n    (bool success, )=owner.call{value:amount}(\"\");\n    require(success,\"Transfer failed\");\n    unchecked{\n    totalPayments-= amount;\n    }\n  }\n\n  //Query Function \n\n\n  //get Owner \n  function getOwner() external view returns(address) {\n    return owner;\n  }\n\n  //isUser \n  function isUser(address walletAddress)private view returns(bool){\n    return users[walletAddress].walletAddress !=address(0);\n  }\n\n  //getUser #existingUser \n  function getUser(address walletAddress) external view returns(User memory){\n    require(isUser(walletAddress),\"User does not exists\");\n    return users[walletAddress];\n  }\n\n  //getTicketByTypeOfTicket\n  function getTypeOfTicket(uint id) external view returns(TicketType memory){\n    return ticketTypes[id];\n  }\n\n  //getalltickettypes\n  function getALLTypeOfTicket() external view returns(TicketType[] memory){\n    uint counter=_counter.current();\n    TicketType[] memory allTypeOfTicket = new TicketType[](counter);\n    for(uint i=1;i<=counter;i++){\n      allTypeOfTicket[i-1]=ticketTypes[i];\n    }\n    return allTypeOfTicket;\n  }\n\n  //getTicket #existingTicket\n  function getAllTicketsByTypeOfTicket(uint id) external view returns (Ticket[] memory){\n    Ticket[] memory temp =ticketTypes[id].tickets;\n    uint count=temp.length;\n    Ticket[] memory tickets = new Ticket[](count);\n    for(uint i=0;i< count;i++){\n      tickets[i]=ticketTypes[id].tickets[i];\n    }    \n    return tickets;\n  }\n\n  function getTicketByTypeOfTicket(uint id,uint ticketid)external view returns (Ticket memory){\n    // require(ticketTypes[typeOfTicket].tickets[ticketid].id !=0 , \"Ticket does not exists\"); \n    return ticketTypes[id].tickets[ticketid];\n  }\n\n\n\n  //getCurrentCount\n  function getCurrentCount() external view returns(uint){\n    return _counter.current();\n  }\n\n\n  //getContractBalance  #onlyOwner\n  function getContractBalance() external view onlyOwner returns(uint){\n    return address(this).balance;\n  }\n\n\n  //getTotalPayment #onlyOwner\n  function getTotalPayments() external view onlyOwner returns(uint){\n    return totalPayments;\n  }\n\n}\n\n",
  "sourcePath": "D:\\myproject\\solidy_finalproject\\contracts\\bsc\\ConcertTicket.sol",
  "compiler": {
    "name": "solc",
    "version": "0.8.12+commit.f00d7308.Emscripten.clang"
  },
  "schemaVersion": "3.4.16",
  "updatedAt": "2023-10-30T13:54:58.394Z",
  "devdoc": {
    "kind": "dev",
    "methods": {},
    "version": 1
  },
  "userdoc": {
    "kind": "user",
    "methods": {},
    "version": 1
  },
  "db": {
    "callBytecode": {
      "id": "0x579944692c7a87fbd350991ef12af10d44c460daac04acb1ca9b45261fc5534e"
    },
    "createBytecode": {
      "id": "0xbf56ae8a203d1cf29d88244d16a493b0b4383b4b5f7f70145d6f1fbe280806fd"
    },
    "contract": {
      "id": "0xce0fe9524d1e98317aab0bc63bfcb91e892ad4222a7e36c60d4455cd50347976"
    }
  }
}